{
  "_format": "hh-sol-artifact-1",
  "contractName": "ERC2771Forwarder",
  "sourceName": "@openzeppelin/contracts/metatx/ERC2771Forwarder.sol",
  "abi": [
    {
      "inputs": [
        {
          "internalType": "string",
          "name": "name",
          "type": "string"
        }
      ],
      "stateMutability": "nonpayable",
      "type": "constructor"
    },
    {
      "inputs": [
        {
          "internalType": "uint48",
          "name": "deadline",
          "type": "uint48"
        }
      ],
      "name": "ERC2771ForwarderExpiredRequest",
      "type": "error"
    },
    {
      "inputs": [
        {
          "internalType": "address",
          "name": "signer",
          "type": "address"
        },
        {
          "internalType": "address",
          "name": "from",
          "type": "address"
        }
      ],
      "name": "ERC2771ForwarderInvalidSigner",
      "type": "error"
    },
    {
      "inputs": [
        {
          "internalType": "uint256",
          "name": "requestedValue",
          "type": "uint256"
        },
        {
          "internalType": "uint256",
          "name": "msgValue",
          "type": "uint256"
        }
      ],
      "name": "ERC2771ForwarderMismatchedValue",
      "type": "error"
    },
    {
      "inputs": [
        {
          "internalType": "address",
          "name": "target",
          "type": "address"
        },
        {
          "internalType": "address",
          "name": "forwarder",
          "type": "address"
        }
      ],
      "name": "ERC2771UntrustfulTarget",
      "type": "error"
    },
    {
      "inputs": [],
      "name": "FailedCall",
      "type": "error"
    },
    {
      "inputs": [
        {
          "internalType": "uint256",
          "name": "balance",
          "type": "uint256"
        },
        {
          "internalType": "uint256",
          "name": "needed",
          "type": "uint256"
        }
      ],
      "name": "InsufficientBalance",
      "type": "error"
    },
    {
      "inputs": [
        {
          "internalType": "address",
          "name": "account",
          "type": "address"
        },
        {
          "internalType": "uint256",
          "name": "currentNonce",
          "type": "uint256"
        }
      ],
      "name": "InvalidAccountNonce",
      "type": "error"
    },
    {
      "inputs": [],
      "name": "InvalidShortString",
      "type": "error"
    },
    {
      "inputs": [
        {
          "internalType": "string",
          "name": "str",
          "type": "string"
        }
      ],
      "name": "StringTooLong",
      "type": "error"
    },
    {
      "anonymous": false,
      "inputs": [],
      "name": "EIP712DomainChanged",
      "type": "event"
    },
    {
      "anonymous": false,
      "inputs": [
        {
          "indexed": true,
          "internalType": "address",
          "name": "signer",
          "type": "address"
        },
        {
          "indexed": false,
          "internalType": "uint256",
          "name": "nonce",
          "type": "uint256"
        },
        {
          "indexed": false,
          "internalType": "bool",
          "name": "success",
          "type": "bool"
        }
      ],
      "name": "ExecutedForwardRequest",
      "type": "event"
    },
    {
      "inputs": [],
      "name": "eip712Domain",
      "outputs": [
        {
          "internalType": "bytes1",
          "name": "fields",
          "type": "bytes1"
        },
        {
          "internalType": "string",
          "name": "name",
          "type": "string"
        },
        {
          "internalType": "string",
          "name": "version",
          "type": "string"
        },
        {
          "internalType": "uint256",
          "name": "chainId",
          "type": "uint256"
        },
        {
          "internalType": "address",
          "name": "verifyingContract",
          "type": "address"
        },
        {
          "internalType": "bytes32",
          "name": "salt",
          "type": "bytes32"
        },
        {
          "internalType": "uint256[]",
          "name": "extensions",
          "type": "uint256[]"
        }
      ],
      "stateMutability": "view",
      "type": "function"
    },
    {
      "inputs": [
        {
          "components": [
            {
              "internalType": "address",
              "name": "from",
              "type": "address"
            },
            {
              "internalType": "address",
              "name": "to",
              "type": "address"
            },
            {
              "internalType": "uint256",
              "name": "value",
              "type": "uint256"
            },
            {
              "internalType": "uint256",
              "name": "gas",
              "type": "uint256"
            },
            {
              "internalType": "uint48",
              "name": "deadline",
              "type": "uint48"
            },
            {
              "internalType": "bytes",
              "name": "data",
              "type": "bytes"
            },
            {
              "internalType": "bytes",
              "name": "signature",
              "type": "bytes"
            }
          ],
          "internalType": "struct ERC2771Forwarder.ForwardRequestData",
          "name": "request",
          "type": "tuple"
        }
      ],
      "name": "execute",
      "outputs": [],
      "stateMutability": "payable",
      "type": "function"
    },
    {
      "inputs": [
        {
          "components": [
            {
              "internalType": "address",
              "name": "from",
              "type": "address"
            },
            {
              "internalType": "address",
              "name": "to",
              "type": "address"
            },
            {
              "internalType": "uint256",
              "name": "value",
              "type": "uint256"
            },
            {
              "internalType": "uint256",
              "name": "gas",
              "type": "uint256"
            },
            {
              "internalType": "uint48",
              "name": "deadline",
              "type": "uint48"
            },
            {
              "internalType": "bytes",
              "name": "data",
              "type": "bytes"
            },
            {
              "internalType": "bytes",
              "name": "signature",
              "type": "bytes"
            }
          ],
          "internalType": "struct ERC2771Forwarder.ForwardRequestData[]",
          "name": "requests",
          "type": "tuple[]"
        },
        {
          "internalType": "address payable",
          "name": "refundReceiver",
          "type": "address"
        }
      ],
      "name": "executeBatch",
      "outputs": [],
      "stateMutability": "payable",
      "type": "function"
    },
    {
      "inputs": [
        {
          "internalType": "address",
          "name": "owner",
          "type": "address"
        }
      ],
      "name": "nonces",
      "outputs": [
        {
          "internalType": "uint256",
          "name": "",
          "type": "uint256"
        }
      ],
      "stateMutability": "view",
      "type": "function"
    },
    {
      "inputs": [
        {
          "components": [
            {
              "internalType": "address",
              "name": "from",
              "type": "address"
            },
            {
              "internalType": "address",
              "name": "to",
              "type": "address"
            },
            {
              "internalType": "uint256",
              "name": "value",
              "type": "uint256"
            },
            {
              "internalType": "uint256",
              "name": "gas",
              "type": "uint256"
            },
            {
              "internalType": "uint48",
              "name": "deadline",
              "type": "uint48"
            },
            {
              "internalType": "bytes",
              "name": "data",
              "type": "bytes"
            },
            {
              "internalType": "bytes",
              "name": "signature",
              "type": "bytes"
            }
          ],
          "internalType": "struct ERC2771Forwarder.ForwardRequestData",
          "name": "request",
          "type": "tuple"
        }
      ],
      "name": "verify",
      "outputs": [
        {
          "internalType": "bool",
          "name": "",
          "type": "bool"
        }
      ],
      "stateMutability": "view",
      "type": "function"
    }
  ],
  "bytecode": "0x61016060409080825234620001b157620013bf8038038091620000238285620001b6565b833981016020908183820312620001b15782516001600160401b0393848211620001b157019181601f84011215620001b1578251928484116200019b5785519362000078601f8201601f1916840186620001b6565b80855282850193838284010111620001b1578383620000989301620001da565b845190858201828110868211176200019b57865260018252808201603160f81b8152620000c585620001ff565b93610120948552620000d784620003b3565b95610140968752519020928360e05251902095610100968088524660a0528151928301937f8b73c3c69bb8fe3d512ecc4cf759cc79239f7b179b0ffacaa9a75d522b39400f85528284015260608301524660808301523060a083015260a0825260c0820195828710908711176200019b578590525190206080523060c052610ebf938462000500853960805184610d07015260a05184610dd3015260c05184610cd1015260e05184610d5601525183610d7c015251826105420152518161056b0152f35b634e487b7160e01b600052604160045260246000fd5b600080fd5b601f909101601f19168101906001600160401b038211908210176200019b57604052565b60005b838110620001ee5750506000910152565b8181015183820152602001620001dd565b805160209190828110156200027f575090601f8251116200023d57808251920151908083106200022e57501790565b82600019910360031b1b161790565b604490620002719260405193849263305a27a960e01b845280600485015282519283918260248701528686019101620001da565b601f01601f19168101030190fd5b6001600160401b0381116200019b576000928354926001938481811c91168015620003a8575b838210146200039457601f81116200035e575b5081601f8411600114620002f757509282939183928694620002eb575b50501b916000199060031b1c191617905560ff90565b015192503880620002d5565b919083601f1981168780528488209488905b8883831062000343575050501062000329575b505050811b01905560ff90565b015160001960f88460031b161c191690553880806200031c565b85870151885590960195948501948793509081019062000309565b85805284601f848820920160051c820191601f860160051c015b82811062000388575050620002b8565b87815501859062000378565b634e487b7160e01b86526022600452602486fd5b90607f1690620002a5565b805160209081811015620003e05750601f8251116200023d57808251920151908083106200022e57501790565b9192916001600160401b0381116200019b5760019182548381811c91168015620004f4575b82821014620004de57601f8111620004a5575b5080601f8311600114620004585750819293946000926200044c575b5050600019600383901b1c191690821b17905560ff90565b01519050388062000434565b90601f198316958460005282600020926000905b8882106200048d57505083859697106200032957505050811b01905560ff90565b8087859682949686015181550195019301906200046c565b8360005283601f83600020920160051c820191601f850160051c015b828110620004d157505062000418565b60008155018490620004c1565b634e487b7160e01b600052602260045260246000fd5b90607f16906200040556fe6080604052600436101561001257600080fd5b60003560e01c806319d8d38c146106945780637ecebe001461064d57806384b0196e1461052c578063ccf96b4a146102605763df905caf1461005357600080fd5b61005c366106d6565b6040810135908134036102415760009161007582610808565b92919082156102055781156101da5780156101a3578261019b575b5081610193575b506100b9575b505050156100a757005b60405163d6bda27560e01b8152600490fd5b9091925060018060a01b03169081600052600260205260008060408120928354936001850190556060860135956100f2602082016107e1565b91610110610148603461010860a0860186610a0b565b9390956107e1565b9260405193818592602084019889378201906bffffffffffffffffffffffff199060601b166020820152036014810184520182610764565b519288f192603f5a9104116101915760407f842fb24a83793558587a3dab2be7674da4a51d09c5542d6dd354e5d0ea70813c9181519081528415156020820152a238808061009d565bfe5b905038610097565b915038610090565b836101ad876107e1565b604051636422d02b60e11b81526001600160a01b03928316600482015291166024820152604490fd5b0390fd5b60246101e8608088016107f5565b65ffffffffffff60405191634a777ac560e11b8352166004820152fd5b6101d6610214602088016107e1565b60405163d2650cd160e01b81526001600160a01b0390911660048201523060248201529081906044820190565b6040516370647f7960e01b815260048101839052346024820152604490fd5b60403660031901126105275760043567ffffffffffffffff808211610527573660238301121561052757816004013511610527576024810190366024826004013560051b83010111610527576024356001600160a01b038116919082900361052757600092839182915b8160040135831061037c5750505034810361035e5750816102e757005b81471061033f57600080809381935af13d15610337573d9061030882610a3e565b916103166040519384610764565b82523d6000602084013e5b1561032857005b8051156100a757602081519101fd5b606090610321565b60405163cf47918160e01b815247600482015260248101839052604490fd5b604490604051906370647f7960e01b82526004820152346024820152fd5b90919261039c90604061039486866004013586610786565b0135906107be565b926103ac81846004013584610786565b6000906103b881610808565b9291908a156104ef575b826104e7575b50816104df575b50610407575b5050156103e7575b60010191906102ca565b946103ff600191604061039489876004013587610786565b9590506103dd565b90915060018060a01b03168060005260206002815260406000209081549160018301905560008060609586810135966104418583016107e1565b604086610494603461045660a0880188610a0b565b939096610462896107e1565b9085875196879485019a8b378301916bffffffffffffffffffffffff19911b168c820152036014810184520182610764565b519301359089f193603f5a910411610191577f842fb24a83793558587a3dab2be7674da4a51d09c5542d6dd354e5d0ea70813c91604091825191825285151590820152a287806103d5565b90508a6103cf565b91508b6103c8565b821561051857811561050a57806103c257836101ad866107e1565b60246101e8608087016107f5565b6101d6610214602087016107e1565b600080fd5b34610527576000366003190112610527576105667f0000000000000000000000000000000000000000000000000000000000000000610a91565b61058f7f0000000000000000000000000000000000000000000000000000000000000000610bb9565b60405160208082019282841067ffffffffffffffff851117610637579160206105ea85946105dc979660405260008452604051978897600f60f81b895260e0858a015260e0890190610708565b908782036040890152610708565b91466060870152306080870152600060a087015285830360c0870152519182815201929160005b82811061062057505050500390f35b835185528695509381019392810192600101610611565b634e487b7160e01b600052604160045260246000fd5b34610527576020366003190112610527576004356001600160a01b0381168103610527576001600160a01b0316600090815260026020908152604090912054604051908152f35b346105275760206106ac6106a7366106d6565b610808565b5090826106ce575b50816106c6575b506040519015158152f35b9050826106bb565b9150836106b4565b60031990602081830112610527576004359167ffffffffffffffff8311610527578260e0920301126105275760040190565b919082519283825260005b848110610734575050826000602080949584010152601f8019910116010190565b602081830181015184830182015201610713565b6040810190811067ffffffffffffffff82111761063757604052565b90601f8019910116810190811067ffffffffffffffff82111761063757604052565b91908110156107a85760051b8101359060de1981360301821215610527570190565b634e487b7160e01b600052603260045260246000fd5b919082018092116107cb57565b634e487b7160e01b600052601160045260246000fd5b356001600160a01b03811681036105275790565b3565ffffffffffff811681036105275790565b610811816107e1565b9160209081830192610822846107e1565b9260409361084d610832846107e1565b6001600160a01b031660009081526002602052604090205490565b96608084019061085c826107f5565b9861087461086d60a0880188610a0b565b3691610a5a565b858151910120885191868301937f7f96328b83274ebc7c1cf4f7a3abda602b51a78b7fa1d86a2ce353d75e587cac855260018060a01b0396878092168c860152166060840152898801356080840152606088013560a084015260c083015265ffffffffffff809b1660e083015261010090818301528152610120810167ffffffffffffffff928282108483111761063757610946926042928b52519020610919610cce565b908a519161190160f01b8352600283015260228201522061094061086d60c0890189610a0b565b90610c92565b5060048199929910156109f55761095e9015996107e1565b81518681019063572b6c0560e01b8252306024820152602481526060810194818610908611176106375787946000945251915afa60005190933d856109ea575b5050836109de575b506109b0906107f5565b92866109c4575b5050944291161015929190565b819296506109d1906107e1565b16908416149338806109b7565b151592506109b06109a6565b10159350388061099e565b634e487b7160e01b600052602160045260246000fd5b903590601e1981360301821215610527570180359067ffffffffffffffff82116105275760200191813603831361052757565b67ffffffffffffffff811161063757601f01601f191660200190565b929192610a6682610a3e565b91610a746040519384610764565b829481845281830111610527578281602093846000960137010152565b60ff8114610acf5760ff811690601f8211610abd5760405191610ab383610748565b8252602082015290565b604051632cd44ac360e21b8152600490fd5b50604051600080549060018260011c9060018416938415610baf575b6020948584108114610b9b5783875286949392918115610b7b5750600114610b1f575b5050610b1c92500382610764565b90565b60008080527f290decd9548b62a8d60345a988386fc84ba6bc95484008f6362f93160ef3e56395935091905b818310610b63575050610b1c93508201013880610b0e565b85548784018501529485019486945091830191610b4b565b915050610b1c94925060ff191682840152151560051b8201013880610b0e565b634e487b7160e01b85526022600452602485fd5b91607f1691610aeb565b60ff8114610bdb5760ff811690601f8211610abd5760405191610ab383610748565b506040516000600190600154918260011c9060018416938415610c88575b6020948584108114610b9b5783875286949392918115610b7b5750600114610c29575050610b1c92500382610764565b9093915060016000527fb10e2d527612073b26eecdfd717e6a320cf44b4afac2b0732d9fcbe2b7fa0cf6936000915b818310610c70575050610b1c93508201013880610b0e565b85548784018501529485019486945091830191610c58565b91607f1691610bf9565b8151919060418303610cc357610cbc92506020820151906060604084015193015160001a90610df9565b9192909190565b505060009160029190565b307f00000000000000000000000000000000000000000000000000000000000000006001600160a01b03161480610dd0575b15610d29577f000000000000000000000000000000000000000000000000000000000000000090565b60405160208101907f8b73c3c69bb8fe3d512ecc4cf759cc79239f7b179b0ffacaa9a75d522b39400f82527f000000000000000000000000000000000000000000000000000000000000000060408201527f000000000000000000000000000000000000000000000000000000000000000060608201524660808201523060a082015260a0815260c0810181811067ffffffffffffffff8211176106375760405251902090565b507f00000000000000000000000000000000000000000000000000000000000000004614610d00565b91907f7fffffffffffffffffffffffffffffff5d576e7357a4501ddfe92f46681b20a08411610e7d57926020929160ff608095604051948552168484015260408301526060820152600092839182805260015afa15610e715780516001600160a01b03811615610e6857918190565b50809160019190565b604051903d90823e3d90fd5b5050506000916003919056fea26469706673582212202d2c3ded8e79fb88387b13125dc26ea1a3af80192f0a4f4c797b11993d8066e564736f6c63430008180033",
  "linkReferences": {},
  "deployedLinkReferences": {}
}