{
  "_format": "hh-sol-artifact-1",
  "contractName": "PaymentGatewayV1",
  "sourceName": "src/PaymentGatewayV1.sol",
  "abi": [
    {
      "inputs": [
        {
          "internalType": "address",
          "name": "trustedForwarderAddress",
          "type": "address"
        }
      ],
      "stateMutability": "nonpayable",
      "type": "constructor"
    },
    {
      "inputs": [
        {
          "internalType": "address",
          "name": "target",
          "type": "address"
        }
      ],
      "name": "AddressEmptyCode",
      "type": "error"
    },
    {
      "inputs": [],
      "name": "ECDSAInvalidSignature",
      "type": "error"
    },
    {
      "inputs": [
        {
          "internalType": "uint256",
          "name": "length",
          "type": "uint256"
        }
      ],
      "name": "ECDSAInvalidSignatureLength",
      "type": "error"
    },
    {
      "inputs": [
        {
          "internalType": "bytes32",
          "name": "s",
          "type": "bytes32"
        }
      ],
      "name": "ECDSAInvalidSignatureS",
      "type": "error"
    },
    {
      "inputs": [
        {
          "internalType": "address",
          "name": "implementation",
          "type": "address"
        }
      ],
      "name": "ERC1967InvalidImplementation",
      "type": "error"
    },
    {
      "inputs": [],
      "name": "ERC1967NonPayable",
      "type": "error"
    },
    {
      "inputs": [],
      "name": "FailedCall",
      "type": "error"
    },
    {
      "inputs": [],
      "name": "InvalidInitialization",
      "type": "error"
    },
    {
      "inputs": [],
      "name": "NotInitializing",
      "type": "error"
    },
    {
      "inputs": [
        {
          "internalType": "address",
          "name": "owner",
          "type": "address"
        }
      ],
      "name": "OwnableInvalidOwner",
      "type": "error"
    },
    {
      "inputs": [
        {
          "internalType": "address",
          "name": "account",
          "type": "address"
        }
      ],
      "name": "OwnableUnauthorizedAccount",
      "type": "error"
    },
    {
      "inputs": [],
      "name": "ReentrancyGuardReentrantCall",
      "type": "error"
    },
    {
      "inputs": [
        {
          "internalType": "address",
          "name": "token",
          "type": "address"
        }
      ],
      "name": "SafeERC20FailedOperation",
      "type": "error"
    },
    {
      "inputs": [],
      "name": "UUPSUnauthorizedCallContext",
      "type": "error"
    },
    {
      "inputs": [
        {
          "internalType": "bytes32",
          "name": "slot",
          "type": "bytes32"
        }
      ],
      "name": "UUPSUnsupportedProxiableUUID",
      "type": "error"
    },
    {
      "anonymous": false,
      "inputs": [],
      "name": "EIP712DomainChanged",
      "type": "event"
    },
    {
      "anonymous": false,
      "inputs": [
        {
          "indexed": false,
          "internalType": "uint64",
          "name": "version",
          "type": "uint64"
        }
      ],
      "name": "Initialized",
      "type": "event"
    },
    {
      "anonymous": false,
      "inputs": [
        {
          "indexed": true,
          "internalType": "address",
          "name": "previousOwner",
          "type": "address"
        },
        {
          "indexed": true,
          "internalType": "address",
          "name": "newOwner",
          "type": "address"
        }
      ],
      "name": "OwnershipTransferred",
      "type": "event"
    },
    {
      "anonymous": false,
      "inputs": [
        {
          "indexed": true,
          "internalType": "bytes32",
          "name": "paymentId",
          "type": "bytes32"
        },
        {
          "indexed": true,
          "internalType": "bytes32",
          "name": "merchantId",
          "type": "bytes32"
        },
        {
          "indexed": true,
          "internalType": "address",
          "name": "payerAddress",
          "type": "address"
        },
        {
          "indexed": false,
          "internalType": "address",
          "name": "recipientAddress",
          "type": "address"
        },
        {
          "indexed": false,
          "internalType": "address",
          "name": "tokenAddress",
          "type": "address"
        },
        {
          "indexed": false,
          "internalType": "uint256",
          "name": "amount",
          "type": "uint256"
        },
        {
          "indexed": false,
          "internalType": "uint256",
          "name": "fee",
          "type": "uint256"
        },
        {
          "indexed": false,
          "internalType": "uint256",
          "name": "timestamp",
          "type": "uint256"
        }
      ],
      "name": "PaymentCompleted",
      "type": "event"
    },
    {
      "anonymous": false,
      "inputs": [
        {
          "indexed": true,
          "internalType": "bytes32",
          "name": "originalPaymentId",
          "type": "bytes32"
        },
        {
          "indexed": true,
          "internalType": "bytes32",
          "name": "merchantId",
          "type": "bytes32"
        },
        {
          "indexed": true,
          "internalType": "address",
          "name": "payerAddress",
          "type": "address"
        },
        {
          "indexed": false,
          "internalType": "address",
          "name": "merchantAddress",
          "type": "address"
        },
        {
          "indexed": false,
          "internalType": "address",
          "name": "tokenAddress",
          "type": "address"
        },
        {
          "indexed": false,
          "internalType": "uint256",
          "name": "amount",
          "type": "uint256"
        },
        {
          "indexed": false,
          "internalType": "uint256",
          "name": "timestamp",
          "type": "uint256"
        }
      ],
      "name": "RefundCompleted",
      "type": "event"
    },
    {
      "anonymous": false,
      "inputs": [
        {
          "indexed": true,
          "internalType": "address",
          "name": "oldSigner",
          "type": "address"
        },
        {
          "indexed": true,
          "internalType": "address",
          "name": "newSigner",
          "type": "address"
        }
      ],
      "name": "SignerChanged",
      "type": "event"
    },
    {
      "anonymous": false,
      "inputs": [
        {
          "indexed": true,
          "internalType": "address",
          "name": "tokenAddress",
          "type": "address"
        },
        {
          "indexed": true,
          "internalType": "bool",
          "name": "supported",
          "type": "bool"
        }
      ],
      "name": "TokenSupportChanged",
      "type": "event"
    },
    {
      "anonymous": false,
      "inputs": [
        {
          "indexed": true,
          "internalType": "address",
          "name": "oldTreasuryAddress",
          "type": "address"
        },
        {
          "indexed": true,
          "internalType": "address",
          "name": "newTreasuryAddress",
          "type": "address"
        }
      ],
      "name": "TreasuryChanged",
      "type": "event"
    },
    {
      "anonymous": false,
      "inputs": [
        {
          "indexed": true,
          "internalType": "address",
          "name": "implementation",
          "type": "address"
        }
      ],
      "name": "Upgraded",
      "type": "event"
    },
    {
      "inputs": [],
      "name": "MAX_FEE_BPS",
      "outputs": [
        {
          "internalType": "uint16",
          "name": "",
          "type": "uint16"
        }
      ],
      "stateMutability": "view",
      "type": "function"
    },
    {
      "inputs": [],
      "name": "PAYMENT_REQUEST_TYPEHASH",
      "outputs": [
        {
          "internalType": "bytes32",
          "name": "",
          "type": "bytes32"
        }
      ],
      "stateMutability": "view",
      "type": "function"
    },
    {
      "inputs": [],
      "name": "REFUND_REQUEST_TYPEHASH",
      "outputs": [
        {
          "internalType": "bytes32",
          "name": "",
          "type": "bytes32"
        }
      ],
      "stateMutability": "view",
      "type": "function"
    },
    {
      "inputs": [],
      "name": "UPGRADE_INTERFACE_VERSION",
      "outputs": [
        {
          "internalType": "string",
          "name": "",
          "type": "string"
        }
      ],
      "stateMutability": "view",
      "type": "function"
    },
    {
      "inputs": [
        {
          "internalType": "address[]",
          "name": "tokenAddresses",
          "type": "address[]"
        },
        {
          "internalType": "bool[]",
          "name": "supported",
          "type": "bool[]"
        }
      ],
      "name": "batchSetSupportedTokens",
      "outputs": [],
      "stateMutability": "nonpayable",
      "type": "function"
    },
    {
      "inputs": [],
      "name": "eip712Domain",
      "outputs": [
        {
          "internalType": "bytes1",
          "name": "fields",
          "type": "bytes1"
        },
        {
          "internalType": "string",
          "name": "name",
          "type": "string"
        },
        {
          "internalType": "string",
          "name": "version",
          "type": "string"
        },
        {
          "internalType": "uint256",
          "name": "chainId",
          "type": "uint256"
        },
        {
          "internalType": "address",
          "name": "verifyingContract",
          "type": "address"
        },
        {
          "internalType": "bytes32",
          "name": "salt",
          "type": "bytes32"
        },
        {
          "internalType": "uint256[]",
          "name": "extensions",
          "type": "uint256[]"
        }
      ],
      "stateMutability": "view",
      "type": "function"
    },
    {
      "inputs": [],
      "name": "enforceTokenWhitelist",
      "outputs": [
        {
          "internalType": "bool",
          "name": "",
          "type": "bool"
        }
      ],
      "stateMutability": "view",
      "type": "function"
    },
    {
      "inputs": [],
      "name": "getDomainSeparator",
      "outputs": [
        {
          "internalType": "bytes32",
          "name": "",
          "type": "bytes32"
        }
      ],
      "stateMutability": "view",
      "type": "function"
    },
    {
      "inputs": [],
      "name": "getTrustedForwarder",
      "outputs": [
        {
          "internalType": "address",
          "name": "",
          "type": "address"
        }
      ],
      "stateMutability": "view",
      "type": "function"
    },
    {
      "inputs": [
        {
          "internalType": "address",
          "name": "owner",
          "type": "address"
        },
        {
          "internalType": "address",
          "name": "treasury",
          "type": "address"
        },
        {
          "internalType": "address",
          "name": "signer",
          "type": "address"
        }
      ],
      "name": "initialize",
      "outputs": [],
      "stateMutability": "nonpayable",
      "type": "function"
    },
    {
      "inputs": [
        {
          "internalType": "bytes32",
          "name": "paymentId",
          "type": "bytes32"
        }
      ],
      "name": "isPaymentProcessed",
      "outputs": [
        {
          "internalType": "bool",
          "name": "",
          "type": "bool"
        }
      ],
      "stateMutability": "view",
      "type": "function"
    },
    {
      "inputs": [
        {
          "internalType": "bytes32",
          "name": "paymentId",
          "type": "bytes32"
        }
      ],
      "name": "isPaymentRefunded",
      "outputs": [
        {
          "internalType": "bool",
          "name": "",
          "type": "bool"
        }
      ],
      "stateMutability": "view",
      "type": "function"
    },
    {
      "inputs": [
        {
          "internalType": "address",
          "name": "forwarder",
          "type": "address"
        }
      ],
      "name": "isTrustedForwarder",
      "outputs": [
        {
          "internalType": "bool",
          "name": "",
          "type": "bool"
        }
      ],
      "stateMutability": "view",
      "type": "function"
    },
    {
      "inputs": [],
      "name": "owner",
      "outputs": [
        {
          "internalType": "address",
          "name": "",
          "type": "address"
        }
      ],
      "stateMutability": "view",
      "type": "function"
    },
    {
      "inputs": [
        {
          "internalType": "bytes32",
          "name": "paymentId",
          "type": "bytes32"
        },
        {
          "internalType": "address",
          "name": "tokenAddress",
          "type": "address"
        },
        {
          "internalType": "uint256",
          "name": "amount",
          "type": "uint256"
        },
        {
          "internalType": "address",
          "name": "recipientAddress",
          "type": "address"
        },
        {
          "internalType": "bytes32",
          "name": "merchantId",
          "type": "bytes32"
        },
        {
          "internalType": "uint16",
          "name": "feeBps",
          "type": "uint16"
        },
        {
          "internalType": "bytes",
          "name": "serverSignature",
          "type": "bytes"
        },
        {
          "components": [
            {
              "internalType": "uint256",
              "name": "deadline",
              "type": "uint256"
            },
            {
              "internalType": "uint8",
              "name": "v",
              "type": "uint8"
            },
            {
              "internalType": "bytes32",
              "name": "r",
              "type": "bytes32"
            },
            {
              "internalType": "bytes32",
              "name": "s",
              "type": "bytes32"
            }
          ],
          "internalType": "struct IPaymentGateway.PermitSignature",
          "name": "permit",
          "type": "tuple"
        }
      ],
      "name": "pay",
      "outputs": [],
      "stateMutability": "nonpayable",
      "type": "function"
    },
    {
      "inputs": [
        {
          "internalType": "bytes32",
          "name": "",
          "type": "bytes32"
        }
      ],
      "name": "processedPayments",
      "outputs": [
        {
          "internalType": "bool",
          "name": "",
          "type": "bool"
        }
      ],
      "stateMutability": "view",
      "type": "function"
    },
    {
      "inputs": [],
      "name": "proxiableUUID",
      "outputs": [
        {
          "internalType": "bytes32",
          "name": "",
          "type": "bytes32"
        }
      ],
      "stateMutability": "view",
      "type": "function"
    },
    {
      "inputs": [
        {
          "internalType": "bytes32",
          "name": "originalPaymentId",
          "type": "bytes32"
        },
        {
          "internalType": "address",
          "name": "tokenAddress",
          "type": "address"
        },
        {
          "internalType": "uint256",
          "name": "amount",
          "type": "uint256"
        },
        {
          "internalType": "address",
          "name": "payerAddress",
          "type": "address"
        },
        {
          "internalType": "bytes32",
          "name": "merchantId",
          "type": "bytes32"
        },
        {
          "internalType": "bytes",
          "name": "serverSignature",
          "type": "bytes"
        },
        {
          "components": [
            {
              "internalType": "uint256",
              "name": "deadline",
              "type": "uint256"
            },
            {
              "internalType": "uint8",
              "name": "v",
              "type": "uint8"
            },
            {
              "internalType": "bytes32",
              "name": "r",
              "type": "bytes32"
            },
            {
              "internalType": "bytes32",
              "name": "s",
              "type": "bytes32"
            }
          ],
          "internalType": "struct IPaymentGateway.PermitSignature",
          "name": "permit",
          "type": "tuple"
        }
      ],
      "name": "refund",
      "outputs": [],
      "stateMutability": "nonpayable",
      "type": "function"
    },
    {
      "inputs": [
        {
          "internalType": "bytes32",
          "name": "",
          "type": "bytes32"
        }
      ],
      "name": "refundedPayments",
      "outputs": [
        {
          "internalType": "bool",
          "name": "",
          "type": "bool"
        }
      ],
      "stateMutability": "view",
      "type": "function"
    },
    {
      "inputs": [],
      "name": "renounceOwnership",
      "outputs": [],
      "stateMutability": "nonpayable",
      "type": "function"
    },
    {
      "inputs": [
        {
          "internalType": "bool",
          "name": "enforce",
          "type": "bool"
        }
      ],
      "name": "setEnforceTokenWhitelist",
      "outputs": [],
      "stateMutability": "nonpayable",
      "type": "function"
    },
    {
      "inputs": [
        {
          "internalType": "address",
          "name": "newSigner",
          "type": "address"
        }
      ],
      "name": "setSigner",
      "outputs": [],
      "stateMutability": "nonpayable",
      "type": "function"
    },
    {
      "inputs": [
        {
          "internalType": "address",
          "name": "tokenAddress",
          "type": "address"
        },
        {
          "internalType": "bool",
          "name": "supported",
          "type": "bool"
        }
      ],
      "name": "setSupportedToken",
      "outputs": [],
      "stateMutability": "nonpayable",
      "type": "function"
    },
    {
      "inputs": [
        {
          "internalType": "address",
          "name": "newTreasuryAddress",
          "type": "address"
        }
      ],
      "name": "setTreasury",
      "outputs": [],
      "stateMutability": "nonpayable",
      "type": "function"
    },
    {
      "inputs": [],
      "name": "signerAddress",
      "outputs": [
        {
          "internalType": "address",
          "name": "",
          "type": "address"
        }
      ],
      "stateMutability": "view",
      "type": "function"
    },
    {
      "inputs": [
        {
          "internalType": "address",
          "name": "",
          "type": "address"
        }
      ],
      "name": "supportedTokens",
      "outputs": [
        {
          "internalType": "bool",
          "name": "",
          "type": "bool"
        }
      ],
      "stateMutability": "view",
      "type": "function"
    },
    {
      "inputs": [
        {
          "internalType": "address",
          "name": "newOwner",
          "type": "address"
        }
      ],
      "name": "transferOwnership",
      "outputs": [],
      "stateMutability": "nonpayable",
      "type": "function"
    },
    {
      "inputs": [],
      "name": "treasuryAddress",
      "outputs": [
        {
          "internalType": "address",
          "name": "",
          "type": "address"
        }
      ],
      "stateMutability": "view",
      "type": "function"
    },
    {
      "inputs": [],
      "name": "trustedForwarder",
      "outputs": [
        {
          "internalType": "address",
          "name": "",
          "type": "address"
        }
      ],
      "stateMutability": "view",
      "type": "function"
    },
    {
      "inputs": [
        {
          "internalType": "address",
          "name": "newImplementation",
          "type": "address"
        },
        {
          "internalType": "bytes",
          "name": "data",
          "type": "bytes"
        }
      ],
      "name": "upgradeToAndCall",
      "outputs": [],
      "stateMutability": "payable",
      "type": "function"
    }
  ],
  "bytecode": "0x60c03462000128576001600160401b0390601f620026e538819003918201601f1916830191848311848410176200012d578084926020946040528339810103126200012857516001600160a01b038116810362000128573060805260a0527ff0c57e16840df040f15088dc2f81fe391c3923bec73e23a9662efc9c229c6a009081549060ff8260401c1662000116578080831603620000d0575b6040516125a19081620001448239608051818181611652015261170b015260a0518181816102da0152818161160b01526121700152f35b6001600160401b031990911681179091556040519081527fc7f505b2f371ae2175ee4913f4499e1f2633a7b5936321eed1cdaeb6115181d290602090a138808062000099565b60405163f92ee8a960e01b8152600490fd5b600080fd5b634e487b7160e01b600052604160045260246000fdfe608080604052600436101561001357600080fd5b600090813560e01c90816304ffe418146119cd575080631e049b661461199257806322fda2ba146119575780632d07a7f41461191b5780634a0ea4d7146118ed5780634f1ef286146116bc57806352d1902d1461163f578063572b6c05146115ea5780635b7633d0146115c1578063624b15d2146110a557806368c4ac26146110665780636c19e7831461103c578063715018a614610fd15780637da0a877146102c457806384b0196e14610e735780638da5cb5b14610e3d57806392cd210614610cdd578063a434406a14610922578063ad3cb1cc146108d8578063b7362115146108a9578063baca75ee146108a9578063c0c53b8b14610336578063c5f956af14610309578063ce1b815f146102c4578063d55be8c6146102a7578063e798646614610215578063ed24911d146101f2578063f0f44260146101c8578063f2fde38b1461019b5763f3f247eb1461016b57600080fd5b346101985760203660031901126101985760ff604060209260043581528084522054166040519015158152f35b80fd5b5034610198576020366003190112610198576101c56101b86119ee565b6101c0611d33565b611cbf565b80f35b5034610198576020366003190112610198576101c56101e56119ee565b6101ed611d33565b6120aa565b5034610198578060031936011261019857602061020d6121f3565b604051908152f35b50346101985760403660031901126101985761022f6119ee565b602435801515918282036102a25761027b90610249611d33565b6001600160a01b03169161025e831515611be9565b8285526002602052604085209060ff801983541691151516179055565b7f4e64f955f4c1a97a6779d936a2fe8f59e1674f3e1a4c883736b9131969860a898380a380f35b600080fd5b503461019857806003193601126101985760206040516127108152f35b50346101985780600319360112610198576040517f00000000000000000000000000000000000000000000000000000000000000006001600160a01b03168152602090f35b503461019857806003193601126101985760035460405160089190911c6001600160a01b03168152602090f35b5034610198576060366003190112610198576103506119ee565b610358611a04565b6044356001600160a01b03811690036102a25760008051602061254c83398151915254916001600160401b03831680159081610899575b600114908161088f575b159081610886575b50610874576103ed9060016001600160401b031985161760008051602061254c8339815191525560ff8460401c1615610847575b6103dd6121c4565b6103e56121c4565b6101c06121c4565b6103f56121c4565b6103fd6121c4565b600160008051602061252c8339815191525560405161041b81611a43565b600e81526d536f6c6f5061794761746577617960901b60208201526040519061044382611a43565b60018252603160f81b60208301526104596121c4565b6104616121c4565b8051906001600160401b03821161083357819061048c6000805160206124cc83398151915254611e3f565b601f81116107b4575b50602090601f8311600114610724578792610719575b50508160011b916000199060031b1c1916176000805160206124cc833981519152555b80516001600160401b038111610705577fa16a46d94261c7517cc8ff89f61c0ce93598e3c849801011dee649a6a557d1039161050a8354611e3f565b601f81116106a3575b50602090601f831160011461061a57918061059e949260ff979694899261060f575b50508160011b916000199060031b1c19161790555b847fa16a46d94261c7517cc8ff89f61c0ce93598e3c849801011dee649a6a557d10055847fa16a46d94261c7517cc8ff89f61c0ce93598e3c849801011dee649a6a557d101558319600354166003556120aa565b6105a9604435611db1565b60401c16156105b55780f35b68ff00000000000000001960008051602061254c833981519152541660008051602061254c833981519152557fc7f505b2f371ae2175ee4913f4499e1f2633a7b5936321eed1cdaeb6115181d2602060405160018152a180f35b015190503880610535565b8387527f5f9ce34815f8e11431c7bb75a8e6886a91478f7ffc1dbb0a98dc240fddd76b759190601f198416885b81811061068b575092600192859260ff99989661059e989610610672575b505050811b01905561054a565b015160001960f88460031b161c19169055388080610665565b92936020600181928786015181550195019301610647565b8387527f5f9ce34815f8e11431c7bb75a8e6886a91478f7ffc1dbb0a98dc240fddd76b75601f840160051c810191602085106106fb575b601f0160051c01905b8181106106f05750610513565b8781556001016106e3565b90915081906106da565b634e487b7160e01b85526041600452602485fd5b0151905038806104ab565b92506000805160206124cc833981519152875260008051602061250c8339815191529087935b601f1984168510610799576001945083601f19811610610780575b505050811b016000805160206124cc833981519152556104ce565b015160001960f88460031b161c19169055388080610765565b8181015183556020948501946001909301929091019061074a565b9091506000805160206124cc8339815191528752601f830160051c60008051602061250c833981519152016020841061081e575b908392915b601f820160051c60008051602061250c8339815191520181106108105750610495565b8881558493506001016107ed565b5060008051602061250c8339815191526107e8565b634e487b7160e01b86526041600452602486fd5b68ffffffffffffffffff198416680100000000000000011760008051602061254c833981519152556103d5565b60405163f92ee8a960e01b8152600490fd5b905015386103a1565b303b159150610399565b604085901c60ff1615915061038f565b50346101985760203660031901126101985760ff60406020926004358152600184522054166040519015158152f35b503461019857806003193601126101985761091e6040516108f881611a43565b60058152640352e302e360dc1b6020820152604051918291602083526020830190611afe565b0390f35b5034610198576101403660031901126101985761093d611a04565b610945611a1a565b6001600160401b039160a435838111610cd957610966903690600401611ad1565b909360803660c3190112610cd55761097c611d81565b610984612145565b9460c43580610c14575b5060043587528660205260ff60408820541615610bd7576004358752600160205260ff604088205416610b9b576109c86044351515611c36565b6109dc6001600160a01b0385161515611be9565b6001600160a01b03851615610b6257604080517f598c2433ebfb69460ac5996ae20431ae5372d75ec981feb369353efa8899a0eb6020820152600435918101919091526001600160a01b0385811660608301526044356080830152861660a082015260843560c08083019190915281529160e0830190811190831117610b4c57610aae92610a89610a8f92610a818560e0610a9897016040526020815191012061219e565b923691611a9a565b90612268565b909291926122a4565b6004546001600160a01b03918216911614611c7b565b60043584526001602081905260408520805460ff19169091179055610ae060443583856001600160a01b038516612000565b604080516001600160a01b03948516815291841660208301526044359082015242606082015291169060843590600435907f7e5fe09e3150ab5da869814eeed66253403e9a7c4d41e0c493099f9d7554177790608090a4600160008051602061252c8339815191525580f35b634e487b7160e01b600052604160045260246000fd5b60405162461bcd60e51b815260206004820152601160248201527028239d1034b73b30b634b2103830bcb2b960791b6044820152606490fd5b60405162461bcd60e51b81526020600482015260146024820152731411ce88185b1c9958591e481c99599d5b99195960621b6044820152606490fd5b60405162461bcd60e51b81526020600482015260156024820152741411ce881c185e5b595b9d081b9bdd08199bdd5b99605a1b6044820152606490fd5b610c2042821015611b6e565b6001600160a01b03851660e43560ff811681036102a2578992823b15610cd15760405163d505accf60e01b81526001600160a01b038b1660048201523060248201526044803590820152606481019190915260ff9190911660848201526101043560a48201526101243560c4820152908290829060e490829084905af18015610cc657610cae575b5061098e565b610cb790611a30565b610cc2578638610ca8565b8680fd5b6040513d84823e3d90fd5b8380fd5b8580fd5b8480fd5b5034610198576040366003190112610198576001600160401b03600435818111610e3957610d0f903690600401611b3e565b9091602435908111610cd157610d29903690600401611b3e565b9190610d33611d33565b828203610dfe57845b828110610d47578580f35b6001906001600160a01b03610d7181610d69610d6485898c611baf565b611bd5565b161515611be9565b610db3610d87610d82848988611baf565b611c29565b82610d96610d64868a8d611baf565b168a52600260205260408a209060ff801983541691151516179055565b610dc1610d6483878a611baf565b90610dd0610d82848988611baf565b151591167f4e64f955f4c1a97a6779d936a2fe8f59e1674f3e1a4c883736b9131969860a898980a301610d3c565b60405162461bcd60e51b81526020600482015260136024820152720a08e7440d8cadccee8d040dad2e6dac2e8c6d606b1b6044820152606490fd5b8280fd5b50346101985780600319360112610198576000805160206124ec833981519152546040516001600160a01b039091168152602090f35b50346101985780600319360112610198577fa16a46d94261c7517cc8ff89f61c0ce93598e3c849801011dee649a6a557d100541580610fa8575b15610f6b57610eba611e79565b90610ec3611f3f565b906040519060209060208301938385106001600160401b03861117610b4c579284926020610f218896610f1398604052858552604051988998600f60f81b8a5260e0858b015260e08a0190611afe565b9088820360408a0152611afe565b924660608801523060808801528460a088015286840360c088015251928381520193925b828110610f5457505050500390f35b835185528695509381019392810192600101610f45565b60405162461bcd60e51b81526020600482015260156024820152741152540dcc4c8e88155b9a5b9a5d1a585b1a5e9959605a1b6044820152606490fd5b507fa16a46d94261c7517cc8ff89f61c0ce93598e3c849801011dee649a6a557d1015415610ead565b5034610198578060031936011261019857610fea611d33565b6000805160206124ec83398151915280546001600160a01b031981169091556000906001600160a01b03167f8be0079c531659141344cd1fd0a4f28419497f9722a3daafe3b4186f6b6457e08280a380f35b5034610198576020366003190112610198576101c56110596119ee565b611061611d33565b611db1565b50346101985760203660031901126101985760209060ff906040906001600160a01b036110916119ee565b168152600284522054166040519015158152f35b503461019857610160366003190112610198576110c0611a04565b6110c8611a1a565b9060a4359061ffff82168203610cd15760c4356001600160401b038111610cd9576110f7903690600401611ad1565b929060803660e3190112610cd55761110d611d81565b611115612145565b9360e4358061150f575b5060035490600882901c6001600160a01b0316156114d3576004546001600160a01b031680156114995760043589528860205260ff60408a20541661145c5761116b6044351515611c36565b61117f6001600160a01b0387161515611be9565b6001600160a01b0388161561141f5761271061ffff8616116113e7576040517f72d781e0942cb269e920d3563ab7d2adea5c28bad1c9364c70dcb529638cff656020820152600435604082015260018060a01b0387166060820152604435608082015260018060a01b03891660a082015260843560c082015261ffff861660e082015260e08152806101008101106001600160401b0361010083011117610b4c57610a8f61125793610a8960ff97610a818561010061124897016040526020815191012061219e565b6001600160a01b031614611c7b565b16611385575b61ffff8116604435029061ffff6044358304911614604435151715611371576127109004908160443503604435811161135d576112c39060043587528660205260408720600160ff1982541617905583611337575b85856001600160a01b038516612000565b604080516001600160a01b039586168152918516602083015260443590820152606081019190915242608082015291169060843590600435907f6888e6ff9d4b95724cdc09df022158fed4ab42ee444dc4af1c561b8436bef1479060a090a4600160008051602061252c8339815191525580f35b60035461135890859060081c6001600160a01b039081169088908716612000565b6112b2565b634e487b7160e01b86526011600452602486fd5b634e487b7160e01b85526011600452602485fd5b6001600160a01b03821685526002602052604085205460ff1661125d5760405162461bcd60e51b815260206004820152601760248201527f50473a20746f6b656e206e6f7420737570706f727465640000000000000000006044820152606490fd5b60405162461bcd60e51b815260206004820152601060248201526f0a08e7440cccaca40e8dede40d0d2ced60831b6044820152606490fd5b60405162461bcd60e51b81526020600482015260156024820152741411ce881a5b9d985b1a59081c9958da5c1a595b9d605a1b6044820152606490fd5b60405162461bcd60e51b81526020600482015260156024820152741411ce88185b1c9958591e481c1c9bd8d95cdcd959605a1b6044820152606490fd5b60405162461bcd60e51b81526020600482015260126024820152711411ce881cda59db995c881b9bdd081cd95d60721b6044820152606490fd5b60405162461bcd60e51b81526020600482015260146024820152731411ce881d1c99585cdd5c9e481b9bdd081cd95d60621b6044820152606490fd5b61151b42821015611b6e565b610104359088906001600160a01b03871660ff84168403610e3957803b15610e395760405163d505accf60e01b81526001600160a01b038a1660048201523060248201526044803590820152606481019290925260ff9390931660848201526101243560a48201526101443560c482015291829060e490829084905af180156115b6571561111f576115af90979197611a30565b953861111f565b6040513d8a823e3d90fd5b50346101985780600319360112610198576004546040516001600160a01b039091168152602090f35b50346101985760203660031901126101985760206116066119ee565b6040517f00000000000000000000000000000000000000000000000000000000000000006001600160a01b039081169216919091148152f35b50346101985780600319360112610198577f00000000000000000000000000000000000000000000000000000000000000006001600160a01b031630036116aa5760206040517f360894a13ba1a3210667c828492db98dca3e2076cc3735a920a3ca505d382bbc8152f35b60405163703e46dd60e11b8152600490fd5b506040366003190112610198576116d16119ee565b6024356001600160401b038111610e395736602382011215610e3957611701903690602481600401359101611a9a565b6001600160a01b037f000000000000000000000000000000000000000000000000000000000000000081163081149081156118bf575b506116aa57611744611d33565b6040516352d1902d60e01b8152908316926020918281600481885afa869181611890575b5061178657604051634c9c8ce360e01b815260048101869052602490fd5b9385947f360894a13ba1a3210667c828492db98dca3e2076cc3735a920a3ca505d382bbc908181036118785750823b1561185f5780546001600160a01b0319168217905560405185917fbc7cd75a20ee27fd9adebab32041f755214dbc6bffa90cc0225b39da2e5c2d3b8380a2845115611842575080848461183596519101845af4903d15611839573d61181981611a7f565b906118276040519283611a5e565b81528581943d92013e6123d8565b5080f35b606092506123d8565b935050505034611850575080f35b63b398979f60e01b8152600490fd5b604051634c9c8ce360e01b815260048101839052602490fd5b60249060405190632a87526960e21b82526004820152fd5b9091508381813d83116118b8575b6118a88183611a5e565b81010312610cc257519038611768565b503d61189e565b9050817f360894a13ba1a3210667c828492db98dca3e2076cc3735a920a3ca505d382bbc5416141538611737565b50346101985760203660031901126101985760ff604060209260043581528084522054166040519015158152f35b50346101985760203660031901126101985760043580151580910361195357611942611d33565b60ff80196003541691161760035580f35b5080fd5b503461019857806003193601126101985760206040517f598c2433ebfb69460ac5996ae20431ae5372d75ec981feb369353efa8899a0eb8152f35b503461019857806003193601126101985760206040517f72d781e0942cb269e920d3563ab7d2adea5c28bad1c9364c70dcb529638cff658152f35b90503461195357816003193601126119535760209060ff6003541615158152f35b600435906001600160a01b03821682036102a257565b602435906001600160a01b03821682036102a257565b606435906001600160a01b03821682036102a257565b6001600160401b038111610b4c57604052565b604081019081106001600160401b03821117610b4c57604052565b90601f801991011681019081106001600160401b03821117610b4c57604052565b6001600160401b038111610b4c57601f01601f191660200190565b929192611aa682611a7f565b91611ab46040519384611a5e565b8294818452818301116102a2578281602093846000960137010152565b9181601f840112156102a2578235916001600160401b0383116102a257602083818601950101116102a257565b919082519283825260005b848110611b2a575050826000602080949584010152601f8019910116010190565b602081830181015184830182015201611b09565b9181601f840112156102a2578235916001600160401b0383116102a2576020808501948460051b0101116102a257565b15611b7557565b60405162461bcd60e51b81526020600482015260126024820152711411ce881c195c9b5a5d08195e1c1a5c995960721b6044820152606490fd5b9190811015611bbf5760051b0190565b634e487b7160e01b600052603260045260246000fd5b356001600160a01b03811681036102a25790565b15611bf057565b60405162461bcd60e51b815260206004820152601160248201527028239d1034b73b30b634b2103a37b5b2b760791b6044820152606490fd5b3580151581036102a25790565b15611c3d57565b60405162461bcd60e51b8152602060048201526016602482015275050473a20616d6f756e74206d757374206265203e20360541b6044820152606490fd5b15611c8257565b60405162461bcd60e51b815260206004820152601560248201527450473a20696e76616c6964207369676e617475726560581b6044820152606490fd5b6001600160a01b03908116908115611d1a576000805160206124ec83398151915280546001600160a01b031981168417909155167f8be0079c531659141344cd1fd0a4f28419497f9722a3daafe3b4186f6b6457e0600080a3565b604051631e4fbdf760e01b815260006004820152602490fd5b6000805160206124ec833981519152546001600160a01b0390811681611d57612145565b1603611d605750565b602490611d6b612145565b60405163118cdaa760e01b815291166004820152fd5b60008051602061252c8339815191526002815414611d9f5760029055565b604051633ee5aeb560e01b8152600490fd5b6001600160a01b03908116908115611e0557600454826bffffffffffffffffffffffff60a01b821617600455167feeb293e1f8f3a9db91ade748726387ed1352ca78f5430c5f06fe3d1e1ad50579600080a3565b60405162461bcd60e51b815260206004820152601260248201527128239d1034b73b30b634b21039b4b3b732b960711b6044820152606490fd5b90600182811c92168015611e6f575b6020831014611e5957565b634e487b7160e01b600052602260045260246000fd5b91607f1691611e4e565b604051906000826000805160206124cc83398151915291825492611e9c84611e3f565b80845293602091600191828116908115611f195750600114611eca575b505050611ec892500383611a5e565b565b600090815260008051602061250c8339815191529590935091905b828410611f015750611ec8945050508101602001388080611eb9565b85548885018301529485019487945092810192611ee5565b9250505060209250611ec894915060ff191682840152151560051b820101388080611eb9565b604051906000827fa16a46d94261c7517cc8ff89f61c0ce93598e3c849801011dee649a6a557d10391825492611f7484611e3f565b80845293602091600191828116908115611f195750600114611f9f57505050611ec892500383611a5e565b60009081527f5f9ce34815f8e11431c7bb75a8e6886a91478f7ffc1dbb0a98dc240fddd76b759590935091905b828410611fe85750611ec8945050508101602001388080611eb9565b85548885018301529485019487945092810192611fcc565b6040516323b872dd60e01b602082019081526001600160a01b039384166024830152938316604482015260648082019590955293845292909160a08201906001600160401b03821183831017610b4c57602092600092604052519082865af11561209e576000513d61209557508082163b155b61207b575050565b604051635274afe760e01b81529116600482015260249150fd5b60011415612073565b6040513d6000823e3d90fd5b6001600160a01b038181169182156121095760038054610100600160a81b03198116600893841b610100600160a81b031617909155901c167f8c3aa5f43a388513435861bf27dfad7829cd248696fed367c62d441f62954496600080a3565b60405162461bcd60e51b815260206004820152601460248201527350473a20696e76616c696420747265617375727960601b6044820152606490fd5b60143610158061216c575b156121685760131936013681116102a2573560601c90565b3390565b50337f00000000000000000000000000000000000000000000000000000000000000006001600160a01b031614612150565b6042906121a96121f3565b906040519161190160f01b8352600283015260228201522090565b60ff60008051602061254c8339815191525460401c16156121e157565b604051631afcd79f60e31b8152600490fd5b6121fb612329565b612203612393565b6040519060208201927f8b73c3c69bb8fe3d512ecc4cf759cc79239f7b179b0ffacaa9a75d522b39400f8452604083015260608201524660808201523060a082015260a0815260c081018181106001600160401b03821117610b4c5760405251902090565b81519190604183036122995761229292506020820151906060604084015193015160001a9061243b565b9192909190565b505060009160029190565b600481101561231357806122b6575050565b600181036122d05760405163f645eedf60e01b8152600490fd5b600281036122f15760405163fce698f760e01b815260048101839052602490fd5b6003146122fb5750565b602490604051906335e2f38360e21b82526004820152fd5b634e487b7160e01b600052602160045260246000fd5b612331611e79565b8051908115612341576020012090565b50507fa16a46d94261c7517cc8ff89f61c0ce93598e3c849801011dee649a6a557d10054801561236e5790565b507fc5d2460186f7233c927e7db2dcc703c0e500b653ca82273b7bfad8045d85a47090565b61239b611f3f565b80519081156123ab576020012090565b50507fa16a46d94261c7517cc8ff89f61c0ce93598e3c849801011dee649a6a557d10154801561236e5790565b906123ff57508051156123ed57602081519101fd5b60405163d6bda27560e01b8152600490fd5b81511580612432575b612410575090565b604051639996b31560e01b81526001600160a01b039091166004820152602490fd5b50803b15612408565b91907f7fffffffffffffffffffffffffffffff5d576e7357a4501ddfe92f46681b20a084116124bf57926020929160ff608095604051948552168484015260408301526060820152600092839182805260015afa156124b35780516001600160a01b038116156124aa57918190565b50809160019190565b604051903d90823e3d90fd5b5050506000916003919056fea16a46d94261c7517cc8ff89f61c0ce93598e3c849801011dee649a6a557d1029016d09d72d40fdae2fd8ceac6b6234c7706214fd39c1cd1e609a0528c19930042ad5d3e1f2e6e70edcf6d991b8a3023d3fca8047a131592f9edb9fd9b89d57d9b779b17422d0df92223018b32b4d1fa46e071723d6817e2486d003becc55f00f0c57e16840df040f15088dc2f81fe391c3923bec73e23a9662efc9c229c6a00a2646970667358221220721df13b3d2699d77ee5c92a85361e626c64dbd9f2afc1504f10a9668ce4f88664736f6c63430008180033",
  "linkReferences": {},
  "deployedLinkReferences": {}
}