{
  "_format": "hh-sol-artifact-1",
  "contractName": "PaymentGatewayV1",
  "sourceName": "src/PaymentGatewayV1.sol",
  "abi": [
    {
      "inputs": [
        {
          "internalType": "address",
          "name": "trustedForwarderAddress",
          "type": "address"
        }
      ],
      "stateMutability": "nonpayable",
      "type": "constructor"
    },
    {
      "inputs": [
        {
          "internalType": "address",
          "name": "target",
          "type": "address"
        }
      ],
      "name": "AddressEmptyCode",
      "type": "error"
    },
    {
      "inputs": [],
      "name": "ECDSAInvalidSignature",
      "type": "error"
    },
    {
      "inputs": [
        {
          "internalType": "uint256",
          "name": "length",
          "type": "uint256"
        }
      ],
      "name": "ECDSAInvalidSignatureLength",
      "type": "error"
    },
    {
      "inputs": [
        {
          "internalType": "bytes32",
          "name": "s",
          "type": "bytes32"
        }
      ],
      "name": "ECDSAInvalidSignatureS",
      "type": "error"
    },
    {
      "inputs": [
        {
          "internalType": "address",
          "name": "implementation",
          "type": "address"
        }
      ],
      "name": "ERC1967InvalidImplementation",
      "type": "error"
    },
    {
      "inputs": [],
      "name": "ERC1967NonPayable",
      "type": "error"
    },
    {
      "inputs": [],
      "name": "FailedCall",
      "type": "error"
    },
    {
      "inputs": [],
      "name": "InvalidInitialization",
      "type": "error"
    },
    {
      "inputs": [],
      "name": "NotInitializing",
      "type": "error"
    },
    {
      "inputs": [
        {
          "internalType": "address",
          "name": "owner",
          "type": "address"
        }
      ],
      "name": "OwnableInvalidOwner",
      "type": "error"
    },
    {
      "inputs": [
        {
          "internalType": "address",
          "name": "account",
          "type": "address"
        }
      ],
      "name": "OwnableUnauthorizedAccount",
      "type": "error"
    },
    {
      "inputs": [],
      "name": "ReentrancyGuardReentrantCall",
      "type": "error"
    },
    {
      "inputs": [
        {
          "internalType": "address",
          "name": "token",
          "type": "address"
        }
      ],
      "name": "SafeERC20FailedOperation",
      "type": "error"
    },
    {
      "inputs": [],
      "name": "UUPSUnauthorizedCallContext",
      "type": "error"
    },
    {
      "inputs": [
        {
          "internalType": "bytes32",
          "name": "slot",
          "type": "bytes32"
        }
      ],
      "name": "UUPSUnsupportedProxiableUUID",
      "type": "error"
    },
    {
      "anonymous": false,
      "inputs": [],
      "name": "EIP712DomainChanged",
      "type": "event"
    },
    {
      "anonymous": false,
      "inputs": [
        {
          "indexed": false,
          "internalType": "uint64",
          "name": "version",
          "type": "uint64"
        }
      ],
      "name": "Initialized",
      "type": "event"
    },
    {
      "anonymous": false,
      "inputs": [
        {
          "indexed": true,
          "internalType": "address",
          "name": "previousOwner",
          "type": "address"
        },
        {
          "indexed": true,
          "internalType": "address",
          "name": "newOwner",
          "type": "address"
        }
      ],
      "name": "OwnershipTransferred",
      "type": "event"
    },
    {
      "anonymous": false,
      "inputs": [
        {
          "indexed": true,
          "internalType": "bytes32",
          "name": "paymentId",
          "type": "bytes32"
        },
        {
          "indexed": true,
          "internalType": "bytes32",
          "name": "merchantId",
          "type": "bytes32"
        },
        {
          "indexed": true,
          "internalType": "address",
          "name": "payerAddress",
          "type": "address"
        },
        {
          "indexed": false,
          "internalType": "address",
          "name": "tokenAddress",
          "type": "address"
        },
        {
          "indexed": false,
          "internalType": "uint256",
          "name": "amount",
          "type": "uint256"
        },
        {
          "indexed": false,
          "internalType": "uint256",
          "name": "timestamp",
          "type": "uint256"
        }
      ],
      "name": "PaymentCancelled",
      "type": "event"
    },
    {
      "anonymous": false,
      "inputs": [
        {
          "indexed": true,
          "internalType": "bytes32",
          "name": "paymentId",
          "type": "bytes32"
        },
        {
          "indexed": true,
          "internalType": "bytes32",
          "name": "merchantId",
          "type": "bytes32"
        },
        {
          "indexed": true,
          "internalType": "address",
          "name": "payerAddress",
          "type": "address"
        },
        {
          "indexed": false,
          "internalType": "address",
          "name": "recipientAddress",
          "type": "address"
        },
        {
          "indexed": false,
          "internalType": "address",
          "name": "tokenAddress",
          "type": "address"
        },
        {
          "indexed": false,
          "internalType": "uint256",
          "name": "amount",
          "type": "uint256"
        },
        {
          "indexed": false,
          "internalType": "uint256",
          "name": "escrowDeadline",
          "type": "uint256"
        },
        {
          "indexed": false,
          "internalType": "uint256",
          "name": "timestamp",
          "type": "uint256"
        }
      ],
      "name": "PaymentEscrowed",
      "type": "event"
    },
    {
      "anonymous": false,
      "inputs": [
        {
          "indexed": true,
          "internalType": "bytes32",
          "name": "paymentId",
          "type": "bytes32"
        },
        {
          "indexed": true,
          "internalType": "bytes32",
          "name": "merchantId",
          "type": "bytes32"
        },
        {
          "indexed": false,
          "internalType": "address",
          "name": "recipientAddress",
          "type": "address"
        },
        {
          "indexed": false,
          "internalType": "address",
          "name": "tokenAddress",
          "type": "address"
        },
        {
          "indexed": false,
          "internalType": "uint256",
          "name": "amount",
          "type": "uint256"
        },
        {
          "indexed": false,
          "internalType": "uint256",
          "name": "fee",
          "type": "uint256"
        },
        {
          "indexed": false,
          "internalType": "uint256",
          "name": "timestamp",
          "type": "uint256"
        }
      ],
      "name": "PaymentFinalized",
      "type": "event"
    },
    {
      "anonymous": false,
      "inputs": [
        {
          "indexed": true,
          "internalType": "bytes32",
          "name": "originalPaymentId",
          "type": "bytes32"
        },
        {
          "indexed": true,
          "internalType": "bytes32",
          "name": "merchantId",
          "type": "bytes32"
        },
        {
          "indexed": true,
          "internalType": "address",
          "name": "payerAddress",
          "type": "address"
        },
        {
          "indexed": false,
          "internalType": "address",
          "name": "merchantAddress",
          "type": "address"
        },
        {
          "indexed": false,
          "internalType": "address",
          "name": "tokenAddress",
          "type": "address"
        },
        {
          "indexed": false,
          "internalType": "uint256",
          "name": "amount",
          "type": "uint256"
        },
        {
          "indexed": false,
          "internalType": "uint256",
          "name": "timestamp",
          "type": "uint256"
        }
      ],
      "name": "RefundCompleted",
      "type": "event"
    },
    {
      "anonymous": false,
      "inputs": [
        {
          "indexed": true,
          "internalType": "address",
          "name": "oldSigner",
          "type": "address"
        },
        {
          "indexed": true,
          "internalType": "address",
          "name": "newSigner",
          "type": "address"
        }
      ],
      "name": "SignerChanged",
      "type": "event"
    },
    {
      "anonymous": false,
      "inputs": [
        {
          "indexed": true,
          "internalType": "address",
          "name": "tokenAddress",
          "type": "address"
        },
        {
          "indexed": true,
          "internalType": "bool",
          "name": "supported",
          "type": "bool"
        }
      ],
      "name": "TokenSupportChanged",
      "type": "event"
    },
    {
      "anonymous": false,
      "inputs": [
        {
          "indexed": true,
          "internalType": "address",
          "name": "oldTreasuryAddress",
          "type": "address"
        },
        {
          "indexed": true,
          "internalType": "address",
          "name": "newTreasuryAddress",
          "type": "address"
        }
      ],
      "name": "TreasuryChanged",
      "type": "event"
    },
    {
      "anonymous": false,
      "inputs": [
        {
          "indexed": true,
          "internalType": "address",
          "name": "implementation",
          "type": "address"
        }
      ],
      "name": "Upgraded",
      "type": "event"
    },
    {
      "inputs": [],
      "name": "CANCEL_REQUEST_TYPEHASH",
      "outputs": [
        {
          "internalType": "bytes32",
          "name": "",
          "type": "bytes32"
        }
      ],
      "stateMutability": "view",
      "type": "function"
    },
    {
      "inputs": [],
      "name": "FINALIZE_REQUEST_TYPEHASH",
      "outputs": [
        {
          "internalType": "bytes32",
          "name": "",
          "type": "bytes32"
        }
      ],
      "stateMutability": "view",
      "type": "function"
    },
    {
      "inputs": [],
      "name": "MAX_ESCROW_DURATION",
      "outputs": [
        {
          "internalType": "uint256",
          "name": "",
          "type": "uint256"
        }
      ],
      "stateMutability": "view",
      "type": "function"
    },
    {
      "inputs": [],
      "name": "MAX_FEE_BPS",
      "outputs": [
        {
          "internalType": "uint16",
          "name": "",
          "type": "uint16"
        }
      ],
      "stateMutability": "view",
      "type": "function"
    },
    {
      "inputs": [],
      "name": "PAYMENT_REQUEST_TYPEHASH",
      "outputs": [
        {
          "internalType": "bytes32",
          "name": "",
          "type": "bytes32"
        }
      ],
      "stateMutability": "view",
      "type": "function"
    },
    {
      "inputs": [],
      "name": "REFUND_REQUEST_TYPEHASH",
      "outputs": [
        {
          "internalType": "bytes32",
          "name": "",
          "type": "bytes32"
        }
      ],
      "stateMutability": "view",
      "type": "function"
    },
    {
      "inputs": [],
      "name": "UPGRADE_INTERFACE_VERSION",
      "outputs": [
        {
          "internalType": "string",
          "name": "",
          "type": "string"
        }
      ],
      "stateMutability": "view",
      "type": "function"
    },
    {
      "inputs": [
        {
          "internalType": "address[]",
          "name": "tokenAddresses",
          "type": "address[]"
        },
        {
          "internalType": "bool[]",
          "name": "supported",
          "type": "bool[]"
        }
      ],
      "name": "batchSetSupportedTokens",
      "outputs": [],
      "stateMutability": "nonpayable",
      "type": "function"
    },
    {
      "inputs": [
        {
          "internalType": "bytes32",
          "name": "paymentId",
          "type": "bytes32"
        },
        {
          "internalType": "bytes",
          "name": "serverSignature",
          "type": "bytes"
        }
      ],
      "name": "cancel",
      "outputs": [],
      "stateMutability": "nonpayable",
      "type": "function"
    },
    {
      "inputs": [],
      "name": "eip712Domain",
      "outputs": [
        {
          "internalType": "bytes1",
          "name": "fields",
          "type": "bytes1"
        },
        {
          "internalType": "string",
          "name": "name",
          "type": "string"
        },
        {
          "internalType": "string",
          "name": "version",
          "type": "string"
        },
        {
          "internalType": "uint256",
          "name": "chainId",
          "type": "uint256"
        },
        {
          "internalType": "address",
          "name": "verifyingContract",
          "type": "address"
        },
        {
          "internalType": "bytes32",
          "name": "salt",
          "type": "bytes32"
        },
        {
          "internalType": "uint256[]",
          "name": "extensions",
          "type": "uint256[]"
        }
      ],
      "stateMutability": "view",
      "type": "function"
    },
    {
      "inputs": [],
      "name": "enforceTokenWhitelist",
      "outputs": [
        {
          "internalType": "bool",
          "name": "",
          "type": "bool"
        }
      ],
      "stateMutability": "view",
      "type": "function"
    },
    {
      "inputs": [
        {
          "internalType": "bytes32",
          "name": "paymentId",
          "type": "bytes32"
        },
        {
          "internalType": "bytes",
          "name": "serverSignature",
          "type": "bytes"
        }
      ],
      "name": "finalize",
      "outputs": [],
      "stateMutability": "nonpayable",
      "type": "function"
    },
    {
      "inputs": [],
      "name": "getDomainSeparator",
      "outputs": [
        {
          "internalType": "bytes32",
          "name": "",
          "type": "bytes32"
        }
      ],
      "stateMutability": "view",
      "type": "function"
    },
    {
      "inputs": [
        {
          "internalType": "bytes32",
          "name": "paymentId",
          "type": "bytes32"
        }
      ],
      "name": "getPayment",
      "outputs": [
        {
          "components": [
            {
              "internalType": "address",
              "name": "payer",
              "type": "address"
            },
            {
              "internalType": "uint16",
              "name": "feeBps",
              "type": "uint16"
            },
            {
              "internalType": "address",
              "name": "token",
              "type": "address"
            },
            {
              "internalType": "address",
              "name": "recipient",
              "type": "address"
            },
            {
              "internalType": "uint256",
              "name": "amount",
              "type": "uint256"
            },
            {
              "internalType": "bytes32",
              "name": "merchantId",
              "type": "bytes32"
            },
            {
              "internalType": "uint256",
              "name": "escrowDeadline",
              "type": "uint256"
            }
          ],
          "internalType": "struct PaymentGatewayV1.Payment",
          "name": "",
          "type": "tuple"
        }
      ],
      "stateMutability": "view",
      "type": "function"
    },
    {
      "inputs": [],
      "name": "getTrustedForwarder",
      "outputs": [
        {
          "internalType": "address",
          "name": "",
          "type": "address"
        }
      ],
      "stateMutability": "view",
      "type": "function"
    },
    {
      "inputs": [
        {
          "internalType": "address",
          "name": "owner",
          "type": "address"
        },
        {
          "internalType": "address",
          "name": "treasury",
          "type": "address"
        },
        {
          "internalType": "address",
          "name": "signer",
          "type": "address"
        }
      ],
      "name": "initialize",
      "outputs": [],
      "stateMutability": "nonpayable",
      "type": "function"
    },
    {
      "inputs": [
        {
          "internalType": "bytes32",
          "name": "paymentId",
          "type": "bytes32"
        }
      ],
      "name": "isPaymentProcessed",
      "outputs": [
        {
          "internalType": "bool",
          "name": "",
          "type": "bool"
        }
      ],
      "stateMutability": "view",
      "type": "function"
    },
    {
      "inputs": [
        {
          "internalType": "bytes32",
          "name": "paymentId",
          "type": "bytes32"
        }
      ],
      "name": "isPaymentRefunded",
      "outputs": [
        {
          "internalType": "bool",
          "name": "",
          "type": "bool"
        }
      ],
      "stateMutability": "view",
      "type": "function"
    },
    {
      "inputs": [
        {
          "internalType": "address",
          "name": "forwarder",
          "type": "address"
        }
      ],
      "name": "isTrustedForwarder",
      "outputs": [
        {
          "internalType": "bool",
          "name": "",
          "type": "bool"
        }
      ],
      "stateMutability": "view",
      "type": "function"
    },
    {
      "inputs": [],
      "name": "owner",
      "outputs": [
        {
          "internalType": "address",
          "name": "",
          "type": "address"
        }
      ],
      "stateMutability": "view",
      "type": "function"
    },
    {
      "inputs": [
        {
          "internalType": "bytes32",
          "name": "paymentId",
          "type": "bytes32"
        },
        {
          "internalType": "address",
          "name": "tokenAddress",
          "type": "address"
        },
        {
          "internalType": "uint256",
          "name": "amount",
          "type": "uint256"
        },
        {
          "internalType": "address",
          "name": "recipientAddress",
          "type": "address"
        },
        {
          "internalType": "bytes32",
          "name": "merchantId",
          "type": "bytes32"
        },
        {
          "internalType": "uint16",
          "name": "feeBps",
          "type": "uint16"
        },
        {
          "internalType": "uint256",
          "name": "deadline",
          "type": "uint256"
        },
        {
          "internalType": "uint256",
          "name": "escrowDuration",
          "type": "uint256"
        },
        {
          "internalType": "bytes",
          "name": "serverSignature",
          "type": "bytes"
        },
        {
          "components": [
            {
              "internalType": "uint256",
              "name": "deadline",
              "type": "uint256"
            },
            {
              "internalType": "uint8",
              "name": "v",
              "type": "uint8"
            },
            {
              "internalType": "bytes32",
              "name": "r",
              "type": "bytes32"
            },
            {
              "internalType": "bytes32",
              "name": "s",
              "type": "bytes32"
            }
          ],
          "internalType": "struct IPaymentGateway.PermitSignature",
          "name": "permit",
          "type": "tuple"
        }
      ],
      "name": "pay",
      "outputs": [],
      "stateMutability": "nonpayable",
      "type": "function"
    },
    {
      "inputs": [
        {
          "internalType": "bytes32",
          "name": "",
          "type": "bytes32"
        }
      ],
      "name": "paymentStatus",
      "outputs": [
        {
          "internalType": "enum PaymentGatewayV1.PaymentStatus",
          "name": "",
          "type": "uint8"
        }
      ],
      "stateMutability": "view",
      "type": "function"
    },
    {
      "inputs": [
        {
          "internalType": "bytes32",
          "name": "",
          "type": "bytes32"
        }
      ],
      "name": "payments",
      "outputs": [
        {
          "internalType": "address",
          "name": "payer",
          "type": "address"
        },
        {
          "internalType": "uint16",
          "name": "feeBps",
          "type": "uint16"
        },
        {
          "internalType": "address",
          "name": "token",
          "type": "address"
        },
        {
          "internalType": "address",
          "name": "recipient",
          "type": "address"
        },
        {
          "internalType": "uint256",
          "name": "amount",
          "type": "uint256"
        },
        {
          "internalType": "bytes32",
          "name": "merchantId",
          "type": "bytes32"
        },
        {
          "internalType": "uint256",
          "name": "escrowDeadline",
          "type": "uint256"
        }
      ],
      "stateMutability": "view",
      "type": "function"
    },
    {
      "inputs": [],
      "name": "proxiableUUID",
      "outputs": [
        {
          "internalType": "bytes32",
          "name": "",
          "type": "bytes32"
        }
      ],
      "stateMutability": "view",
      "type": "function"
    },
    {
      "inputs": [
        {
          "internalType": "bytes32",
          "name": "originalPaymentId",
          "type": "bytes32"
        },
        {
          "internalType": "bytes",
          "name": "serverSignature",
          "type": "bytes"
        },
        {
          "components": [
            {
              "internalType": "uint256",
              "name": "deadline",
              "type": "uint256"
            },
            {
              "internalType": "uint8",
              "name": "v",
              "type": "uint8"
            },
            {
              "internalType": "bytes32",
              "name": "r",
              "type": "bytes32"
            },
            {
              "internalType": "bytes32",
              "name": "s",
              "type": "bytes32"
            }
          ],
          "internalType": "struct IPaymentGateway.PermitSignature",
          "name": "permit",
          "type": "tuple"
        }
      ],
      "name": "refund",
      "outputs": [],
      "stateMutability": "nonpayable",
      "type": "function"
    },
    {
      "inputs": [],
      "name": "renounceOwnership",
      "outputs": [],
      "stateMutability": "nonpayable",
      "type": "function"
    },
    {
      "inputs": [
        {
          "internalType": "bool",
          "name": "enforce",
          "type": "bool"
        }
      ],
      "name": "setEnforceTokenWhitelist",
      "outputs": [],
      "stateMutability": "nonpayable",
      "type": "function"
    },
    {
      "inputs": [
        {
          "internalType": "address",
          "name": "newSigner",
          "type": "address"
        }
      ],
      "name": "setSigner",
      "outputs": [],
      "stateMutability": "nonpayable",
      "type": "function"
    },
    {
      "inputs": [
        {
          "internalType": "address",
          "name": "tokenAddress",
          "type": "address"
        },
        {
          "internalType": "bool",
          "name": "supported",
          "type": "bool"
        }
      ],
      "name": "setSupportedToken",
      "outputs": [],
      "stateMutability": "nonpayable",
      "type": "function"
    },
    {
      "inputs": [
        {
          "internalType": "address",
          "name": "newTreasuryAddress",
          "type": "address"
        }
      ],
      "name": "setTreasury",
      "outputs": [],
      "stateMutability": "nonpayable",
      "type": "function"
    },
    {
      "inputs": [],
      "name": "signerAddress",
      "outputs": [
        {
          "internalType": "address",
          "name": "",
          "type": "address"
        }
      ],
      "stateMutability": "view",
      "type": "function"
    },
    {
      "inputs": [
        {
          "internalType": "address",
          "name": "",
          "type": "address"
        }
      ],
      "name": "supportedTokens",
      "outputs": [
        {
          "internalType": "bool",
          "name": "",
          "type": "bool"
        }
      ],
      "stateMutability": "view",
      "type": "function"
    },
    {
      "inputs": [
        {
          "internalType": "address",
          "name": "newOwner",
          "type": "address"
        }
      ],
      "name": "transferOwnership",
      "outputs": [],
      "stateMutability": "nonpayable",
      "type": "function"
    },
    {
      "inputs": [],
      "name": "treasuryAddress",
      "outputs": [
        {
          "internalType": "address",
          "name": "",
          "type": "address"
        }
      ],
      "stateMutability": "view",
      "type": "function"
    },
    {
      "inputs": [],
      "name": "trustedForwarder",
      "outputs": [
        {
          "internalType": "address",
          "name": "",
          "type": "address"
        }
      ],
      "stateMutability": "view",
      "type": "function"
    },
    {
      "inputs": [
        {
          "internalType": "address",
          "name": "newImplementation",
          "type": "address"
        },
        {
          "internalType": "bytes",
          "name": "data",
          "type": "bytes"
        }
      ],
      "name": "upgradeToAndCall",
      "outputs": [],
      "stateMutability": "payable",
      "type": "function"
    }
  ],
  "bytecode": "0x60c03462000128576001600160401b0390601f62002da338819003918201601f1916830191848311848410176200012d578084926020946040528339810103126200012857516001600160a01b038116810362000128573060805260a0527ff0c57e16840df040f15088dc2f81fe391c3923bec73e23a9662efc9c229c6a009081549060ff8260401c1662000116578080831603620000d0575b604051612c5f90816200014482396080518181816111330152611b4f015260a051818181610418015281816110ec015261286a0152f35b6001600160401b031990911681179091556040519081527fc7f505b2f371ae2175ee4913f4499e1f2633a7b5936321eed1cdaeb6115181d290602090a138808062000099565b60405163f92ee8a960e01b8152600490fd5b600080fd5b634e487b7160e01b600052604160045260246000fdfe608080604052600436101561001357600080fd5b60003560e01c90816304ffe41814612031575080630716326d14611fb65780630794305e14611f985780631e049b6614611f5d57806322fda2ba14611f225780632d07a7f414611ee9578063302bacf314611da15780634630aa1814611d695780634a0ea4d714611d2e5780634f1ef28614611b005780634f80d80e1461148757806352767f131461119d57806352d1902d14611120578063572b6c05146110cc5780635b7633d0146110a357806368c4ac26146110645780636c19e7831461103b578063715018a614610fd15780637da0a8771461040257806384b0196e14610e755780638da5cb5b14610e3f57806392cd210614610ce2578063ac33fd1f14610ca7578063ad3cb1cc14610c5d578063baca75ee14610c21578063c037f13e146109cf578063c0c53b8b14610474578063c5f956af14610447578063ce1b815f14610402578063d55be8c6146103e5578063e66eefc8146102f0578063e798646614610262578063ed24911d1461023f578063f0f4426014610216578063f2fde38b146101eb5763f85b17fc146101ab57600080fd5b346101e65760003660031901126101e65760206040517f61992068a07dd9b00412f89bbb59a5e12aefbf434488b2455eb7e91e8b6035a98152f35b600080fd5b346101e65760203660031901126101e6576102146102076120b1565b61020f6123a2565b61232e565b005b346101e65760203660031901126101e6576102146102326120b1565b61023a6123a2565b612716565b346101e65760003660031901126101e657602061025a6128c7565b604051908152f35b346101e65760403660031901126101e65761027b6120b1565b602435801515918282036101e6576102c9906102956123a2565b6001600160a01b0316916102aa8315156122e1565b82600052600260205260406000209060ff801983541691151516179055565b7f4e64f955f4c1a97a6779d936a2fe8f59e1674f3e1a4c883736b9131969860a89600080a3005b346101e65760203660031901126101e657600060c0604051610311816120dd565b8281528260208201528260408201528260608201528260808201528260a08201520152600435600052600160205260e06040600020604051610352816120dd565b81549160018060a01b03928381169384845261ffff80602086019360a01c1683528180600186015416604087019081528160028701541692606088019384526003870154956080890196875260c0600560048a01549960a08c019a8b5201549901988952604051998a525116602089015251166040870152511660608501525160808401525160a08301525160c0820152f35b346101e65760003660031901126101e65760206040516127108152f35b346101e65760003660031901126101e6576040517f00000000000000000000000000000000000000000000000000000000000000006001600160a01b03168152602090f35b346101e65760003660031901126101e65760035460405160089190911c6001600160a01b03168152602090f35b346101e65760603660031901126101e65761048d6120b1565b6104956120c7565b6044356001600160a01b03811690036101e657600080516020612c0a83398151915254916001600160401b038316801590816109bf575b60011490816109b5575b1590816109ac575b5061099a5761052a9060016001600160401b0319851617600080516020612c0a8339815191525560ff8460401c161561096d575b61051a612898565b610522612898565b61020f612898565b610532612898565b61053a612898565b6001600080516020612bea833981519152556040519161055983612126565b600e83526d536f6c6f5061794761746577617960901b60208401526040519161058183612126565b60018352603160f81b6020840152610597612898565b61059f612898565b83516001600160401b038111610847576105c7600080516020612b8a83398151915254612557565b601f81116108f7575b506020601f821160011461086857819293949560009261085d575b50508160011b916000199060031b1c191617600080516020612b8a833981519152555b82516001600160401b038111610847577fa16a46d94261c7517cc8ff89f61c0ce93598e3c849801011dee649a6a557d1039061064a8254612557565b601f81116107e3575b506020601f82116001146107595790806106df94939260ff9760009261074e575b50508160011b916000199060031b1c19161790555b60007fa16a46d94261c7517cc8ff89f61c0ce93598e3c849801011dee649a6a557d1005560007fa16a46d94261c7517cc8ff89f61c0ce93598e3c849801011dee649a6a557d10155831960035416600355612716565b6106ea6044356124c9565b60401c16156106f557005b68ff000000000000000019600080516020612c0a8339815191525416600080516020612c0a833981519152557fc7f505b2f371ae2175ee4913f4499e1f2633a7b5936321eed1cdaeb6115181d2602060405160018152a1005b015190508780610674565b601f19821695836000527f5f9ce34815f8e11431c7bb75a8e6886a91478f7ffc1dbb0a98dc240fddd76b759660005b8181106107cb57509660019284926106df97969560ff9a106107b2575b505050811b019055610689565b015160001960f88460031b161c191690558780806107a5565b83830151895560019098019760209384019301610788565b826000527f5f9ce34815f8e11431c7bb75a8e6886a91478f7ffc1dbb0a98dc240fddd76b75601f830160051c8101916020841061083d575b601f0160051c01905b8181106108315750610653565b60008155600101610824565b909150819061081b565b634e487b7160e01b600052604160045260246000fd5b0151905085806105eb565b600080516020612b8a833981519152600052600080516020612bca8339815191529060005b601f19841681106108df575060019394959683601f198116106108c6575b505050811b01600080516020612b8a8339815191525561060e565b015160001960f88460031b161c191690558580806108ab565b9091602060018192858b01518155019301910161088d565b600080516020612b8a833981519152600052601f820160051c600080516020612bca8339815191520160208310610958575b601f820160051c600080516020612bca83398151915201811061094c57506105d0565b60008155600101610929565b50600080516020612bca833981519152610929565b68ffffffffffffffffff1984166801000000000000000117600080516020612c0a83398151915255610512565b60405163f92ee8a960e01b8152600490fd5b905015846104de565b303b1591506104d6565b604085901c60ff161591506104cc565b346101e6576109dd3661207e565b91906109e76123f0565b81600052600060205260ff604060002054166005811015610c0b576001610a0e9114612224565b81600052600160205260406000209060058201544211610bd157610a9393610a84610a8a92610a7c60405160208101907f61992068a07dd9b00412f89bbb59a5e12aefbf434488b2455eb7e91e8b6035a9825288604082015260408152610a748161210b565b5190206127b1565b92369161217d565b9061293c565b90949194612978565b6004546001600160a01b0393610aae91851690851614612263565b8160005260006020526040600020600260ff19825416179055600381019081549161ffff825460a01c16808402908482041484151715610bbb57612710900491828403938411610bbb577f2b2fdf8aab28132b363e3ab98b6c4e00fb159bdf02311f7bceb5f77d8fae7fd29386806004610b869487610b9d575b610b42600182019584875416600284019d8e541690612420565b0154985492549454604080516001600160a01b03939095168316855292909516166020830152810192909252606082019290925242608082015290819060a0820190565b0390a36001600080516020612bea83398151915255005b610bb688846001840154168560035460081c1690612420565b610b28565b634e487b7160e01b600052601160045260246000fd5b60405162461bcd60e51b81526020600482015260126024820152711411ce88195cd8dc9bddc8195e1c1a5c995960721b6044820152606490fd5b634e487b7160e01b600052602160045260246000fd5b346101e65760203660031901126101e657600435600052600060205260ff604060002054166005811015610c0b57602090600460405191148152f35b346101e65760003660031901126101e657610ca3604051610c7d81612126565b60058152640352e302e360dc1b60208201526040519182916020835260208301906121b4565b0390f35b346101e65760003660031901126101e65760206040517fb75b6ec39be5cb7158d6f02324c4273b2411518a383786fa4b37e7c759596f518152f35b346101e65760403660031901126101e6576001600160401b036004358181116101e657610d139036906004016121f4565b90916024359081116101e657610d2d9036906004016121f4565b9190610d376123a2565b828203610e045760005b828110610d4a57005b6001906001600160a01b03610d7481610d6c610d6785898c6122a7565b6122cd565b1615156122e1565b610db8610d8a610d858489886122a7565b612321565b82610d99610d67868a8d6122a7565b16600052600260205260406000209060ff801983541691151516179055565b610dc6610d6783878a6122a7565b90610dd5610d858489886122a7565b151591167f4e64f955f4c1a97a6779d936a2fe8f59e1674f3e1a4c883736b9131969860a89600080a301610d41565b60405162461bcd60e51b81526020600482015260136024820152720a08e7440d8cadccee8d040dad2e6dac2e8c6d606b1b6044820152606490fd5b346101e65760003660031901126101e657600080516020612baa833981519152546040516001600160a01b039091168152602090f35b346101e65760003660031901126101e6577fa16a46d94261c7517cc8ff89f61c0ce93598e3c849801011dee649a6a557d100541580610fa8575b15610f6b57610ebc612591565b610ec4612655565b6040516020808201928284106001600160401b0385111761084757916020610f1e8594610f10979660405260008452604051978897600f60f81b895260e0858a015260e08901906121b4565b9087820360408901526121b4565b91466060870152306080870152600060a087015285830360c0870152519182815201929160005b828110610f5457505050500390f35b835185528695509381019392810192600101610f45565b60405162461bcd60e51b81526020600482015260156024820152741152540dcc4c8e88155b9a5b9a5d1a585b1a5e9959605a1b6044820152606490fd5b507fa16a46d94261c7517cc8ff89f61c0ce93598e3c849801011dee649a6a557d1015415610eaf565b346101e65760003660031901126101e657610fea6123a2565b600080516020612baa83398151915280546001600160a01b031981169091556000906001600160a01b03167f8be0079c531659141344cd1fd0a4f28419497f9722a3daafe3b4186f6b6457e08280a3005b346101e65760203660031901126101e6576102146110576120b1565b61105f6123a2565b6124c9565b346101e65760203660031901126101e6576001600160a01b036110856120b1565b166000526002602052602060ff604060002054166040519015158152f35b346101e65760003660031901126101e6576004546040516001600160a01b039091168152602090f35b346101e65760203660031901126101e65760206110e76120b1565b6040517f00000000000000000000000000000000000000000000000000000000000000006001600160a01b039081169216919091148152f35b346101e65760003660031901126101e6577f00000000000000000000000000000000000000000000000000000000000000006001600160a01b0316300361118b5760206040517f360894a13ba1a3210667c828492db98dca3e2076cc3735a920a3ca505d382bbc8152f35b60405163703e46dd60e11b8152600490fd5b346101e65760c03660031901126101e6576024356001600160401b0381116101e6576111cd903690600401612051565b60803660431901126101e6576111e16123f0565b600435600052600060205260ff604060002054166005811015610c0b5760020361144e57600435600052600160205260406000209161121e61283f565b60028401549092906001600160a01b03908116908416036114155760018401546003850154906001600160a01b031660443561137e575b50506112a86112b191610a846112c794610a7c60405160208101907fa7a07684522dbe178ba65248f3194c7b61eb09fe0c9bd07ba4f8b26601440dd48252600435604082015260408152610a748161210b565b90929192612978565b6004546001600160a01b03918216911614612263565b60043560005260006020526040600020600460ff1982541617905561130860018060a01b0360018401541660018060a01b0384541683600386015492612471565b60048281015483546001850154600390950154604080516001600160a01b0396871681529686166020880152860152426060860152909216929035907f7e5fe09e3150ab5da869814eeed66253403e9a7c4d41e0c493099f9d7554177790608090a46001600080516020612bea83398151915255005b90916064359260ff841684036101e657823b156101e6576112c7946112b1946000610a849360e48a836112a89960ff604051978896879563d505accf60e01b875260018060a01b031660048701523060248701526044860152604435606486015216608484015260843560a484015260a43560c48401525af1611406575b5094505091611255565b61140f906120f8565b886113fc565b60405162461bcd60e51b81526020600482015260116024820152701411ce881b9bdd081c9958da5c1a595b9d607a1b6044820152606490fd5b60405162461bcd60e51b81526020600482015260116024820152701411ce881b9bdd08199a5b985b1a5e9959607a1b6044820152606490fd5b346101e6576101a03660031901126101e6576114a16120c7565b6064356001600160a01b03811690036101e65760a43561ffff811681036101e657610104356001600160401b0381116101e6576114e2903690600401612051565b91906080366101231901126101e6576114f96123f0565b61150161283f565b926101243580611a78575b5060c4354211611a455760035490600882901c6001600160a01b031615611a09576004546001600160a01b031680156119cf57600435600052600060205260ff604060002054166005811015610c0b5761199257604435156119545761157c6001600160a01b03881615156122e1565b6064356001600160a01b0316156119175761271061ffff8616116118df5760e4351515806118d0575b1561188b576040517fd40604ddffff25a50a3648340d94a679a11c014c58d5eebd06ef46a1b15bf8156020820152600435604082015260018060a01b0388166060820152604435608082015260018060a01b036064351660a082015260843560c082015261ffff861660e082015260c43561010082015261012060e435818301528152806101408101106001600160401b0361014083011117610847576112a861167993610a8460ff97610a7c8561014061166a9701604052602081519101206127b1565b6001600160a01b031614612263565b16611826575b60e43542014211610bbb5760043560005260006020526040600020600160ff198254161790556005604051916116b4836120dd565b60018060a01b038416835261ffff60208401911681526040830160018060a01b03861681526060840160018060a01b036064351681526080850190604435825260a0860192608435845260c087019460e43542018652600435600052600160205260406000209760018060a01b0390511688549161ffff60a01b905160a01b169169ffffffffffffffffffff60b01b1617178755600187019060018060a01b03905116906bffffffffffffffffffffffff60a01b9182825416179055600287019160018060a01b0390511690825416179055516003850155516004840155519101556117ac604435308360018060a01b038616612471565b604080516001600160a01b03606435811682529384166020820152604435918101919091524260e43581016060830152608082015291169060843590600435907f8990ffeac9505be1d0cfa321d5a1164b78b26bd71fab5ee6ac41e6dacff691649060a090a46001600080516020612bea83398151915255005b6001600160a01b03831660009081526002602052604090205460ff1661167f5760405162461bcd60e51b815260206004820152601760248201527f50473a20746f6b656e206e6f7420737570706f727465640000000000000000006044820152606490fd5b60405162461bcd60e51b815260206004820152601a60248201527f50473a20696e76616c696420657363726f774475726174696f6e0000000000006044820152606490fd5b5062278d0060e43511156115a5565b60405162461bcd60e51b815260206004820152601060248201526f0a08e7440cccaca40e8dede40d0d2ced60831b6044820152606490fd5b60405162461bcd60e51b81526020600482015260156024820152741411ce881a5b9d985b1a59081c9958da5c1a595b9d605a1b6044820152606490fd5b60405162461bcd60e51b8152602060048201526016602482015275050473a20616d6f756e74206d757374206265203e20360541b6044820152606490fd5b60405162461bcd60e51b81526020600482015260156024820152741411ce88185b1c9958591e481c1c9bd8d95cdcd959605a1b6044820152606490fd5b60405162461bcd60e51b81526020600482015260126024820152711411ce881cda59db995c881b9bdd081cd95d60721b6044820152606490fd5b60405162461bcd60e51b81526020600482015260146024820152731411ce881d1c99585cdd5c9e481b9bdd081cd95d60621b6044820152606490fd5b60405162461bcd60e51b815260206004820152600b60248201526a1411ce88195e1c1a5c995960aa1b6044820152606490fd5b6001600160a01b038616906101443560ff8116908190036101e657823b156101e65760e460009283604051958694859363d505accf60e01b855260018060a01b038d1660048601523060248601526044356044860152606485015260848401526101643560a48401526101843560c48401525af11561150c57611afa906120f8565b8561150c565b60403660031901126101e657611b146120b1565b6024356001600160401b0381116101e657366023820112156101e657611b4490369060248160040135910161217d565b906001600160a01b037f00000000000000000000000000000000000000000000000000000000000000008116308114908115611d00575b5061118b57611b886123a2565b6040516352d1902d60e01b8152908216916020918281600481875afa60009181611cd1575b50611bcb57604051634c9c8ce360e01b815260048101859052602490fd5b9284937f360894a13ba1a3210667c828492db98dca3e2076cc3735a920a3ca505d382bbc90818103611cb95750823b15611ca05780546001600160a01b03191682179055604051907fbc7cd75a20ee27fd9adebab32041f755214dbc6bffa90cc0225b39da2e5c2d3b600080a2835115611c865750600080848461021496519101845af4903d15611c7d573d611c6081612162565b90611c6e6040519283612141565b8152600081943d92013e612b26565b60609250612b26565b9250505034611c9157005b63b398979f60e01b8152600490fd5b604051634c9c8ce360e01b815260048101839052602490fd5b60249060405190632a87526960e21b82526004820152fd5b9091508381813d8311611cf9575b611ce98183612141565b810103126101e657519086611bad565b503d611cdf565b9050817f360894a13ba1a3210667c828492db98dca3e2076cc3735a920a3ca505d382bbc5416141584611b7b565b346101e65760203660031901126101e657600435600052600060205260ff604060002054166005811015610c0b576020906040519015158152f35b346101e65760203660031901126101e657600435600052600060205260ff604060002054166040516005821015610c0b576020918152f35b346101e657611daf3661207e565b90611db86123f0565b82600052600060205260ff604060002054166005811015610c0b576001611ddf9114612224565b8260005260016020526040600020916005830154421115611e93575b50508160005260006020526040600020600360ff1982541617905560018101917f925512dfa8bea1e7806704c7b1a9a8cd27aa4d2f2cd918c13318898d0e9a55d9606060018060a01b038086541690611e5f81875416926003880193845491612420565b80600487015496541696541690546040519182526020820152426040820152a46001600080516020612bea83398151915255005b6112a86112b191610a84611ee294610a7c60405160208101907fb75b6ec39be5cb7158d6f02324c4273b2411518a383786fa4b37e7c759596f5182528a604082015260408152610a748161210b565b8280611dfb565b346101e65760203660031901126101e6576004358015158091036101e657611f0f6123a2565b60ff801960035416911617600355600080f35b346101e65760003660031901126101e65760206040517fa7a07684522dbe178ba65248f3194c7b61eb09fe0c9bd07ba4f8b26601440dd48152f35b346101e65760003660031901126101e65760206040517fd40604ddffff25a50a3648340d94a679a11c014c58d5eebd06ef46a1b15bf8158152f35b346101e65760003660031901126101e657602060405162278d008152f35b346101e65760203660031901126101e657600435600052600160205260e06040600020805460018060a01b0391826001820154168360028301541660038301549161ffff6005600486015495015495604051978116885260a01c16602087015260408601526060850152608084015260a083015260c0820152f35b346101e65760003660031901126101e65760209060ff6003541615158152f35b9181601f840112156101e6578235916001600160401b0383116101e657602083818601950101116101e657565b9060406003198301126101e65760043591602435906001600160401b0382116101e6576120ad91600401612051565b9091565b600435906001600160a01b03821682036101e657565b602435906001600160a01b03821682036101e657565b60e081019081106001600160401b0382111761084757604052565b6001600160401b03811161084757604052565b606081019081106001600160401b0382111761084757604052565b604081019081106001600160401b0382111761084757604052565b90601f801991011681019081106001600160401b0382111761084757604052565b6001600160401b03811161084757601f01601f191660200190565b92919261218982612162565b916121976040519384612141565b8294818452818301116101e6578281602093846000960137010152565b919082519283825260005b8481106121e0575050826000602080949584010152601f8019910116010190565b6020818301810151848301820152016121bf565b9181601f840112156101e6578235916001600160401b0383116101e6576020808501948460051b0101116101e657565b1561222b57565b60405162461bcd60e51b815260206004820152601060248201526f1411ce881b9bdd08195cd8dc9bddd95960821b6044820152606490fd5b1561226a57565b60405162461bcd60e51b815260206004820152601560248201527450473a20696e76616c6964207369676e617475726560581b6044820152606490fd5b91908110156122b75760051b0190565b634e487b7160e01b600052603260045260246000fd5b356001600160a01b03811681036101e65790565b156122e857565b60405162461bcd60e51b815260206004820152601160248201527028239d1034b73b30b634b2103a37b5b2b760791b6044820152606490fd5b3580151581036101e65790565b6001600160a01b0390811690811561238957600080516020612baa83398151915280546001600160a01b031981168417909155167f8be0079c531659141344cd1fd0a4f28419497f9722a3daafe3b4186f6b6457e0600080a3565b604051631e4fbdf760e01b815260006004820152602490fd5b600080516020612baa833981519152546001600160a01b03908116816123c661283f565b16036123cf5750565b6024906123da61283f565b60405163118cdaa760e01b815291166004820152fd5b600080516020612bea833981519152600281541461240e5760029055565b604051633ee5aeb560e01b8152600490fd5b60405163a9059cbb60e01b60208201526001600160a01b03909216602483015260448083019390935291815260808101916001600160401b038311828410176108475761246f926040526127d7565b565b6040516323b872dd60e01b60208201526001600160a01b03928316602482015292909116604483015260648083019390935291815260a08101918183106001600160401b038411176108475761246f926040526127d7565b6001600160a01b0390811690811561251d57600454826bffffffffffffffffffffffff60a01b821617600455167feeb293e1f8f3a9db91ade748726387ed1352ca78f5430c5f06fe3d1e1ad50579600080a3565b60405162461bcd60e51b815260206004820152601260248201527128239d1034b73b30b634b21039b4b3b732b960711b6044820152606490fd5b90600182811c92168015612587575b602083101461257157565b634e487b7160e01b600052602260045260246000fd5b91607f1691612566565b60405190600082600080516020612b8a833981519152918254926125b484612557565b8084529360209160019182811690811561262f57506001146125e0575b50505061246f92500383612141565b6000908152600080516020612bca8339815191529590935091905b828410612617575061246f9450505081016020013880806125d1565b855488850183015294850194879450928101926125fb565b925050506020925061246f94915060ff191682840152151560051b8201013880806125d1565b604051906000827fa16a46d94261c7517cc8ff89f61c0ce93598e3c849801011dee649a6a557d1039182549261268a84612557565b8084529360209160019182811690811561262f57506001146126b55750505061246f92500383612141565b60009081527f5f9ce34815f8e11431c7bb75a8e6886a91478f7ffc1dbb0a98dc240fddd76b759590935091905b8284106126fe575061246f9450505081016020013880806125d1565b855488850183015294850194879450928101926126e2565b6001600160a01b038181169182156127755760038054610100600160a81b03198116600893841b610100600160a81b031617909155901c167f8c3aa5f43a388513435861bf27dfad7829cd248696fed367c62d441f62954496600080a3565b60405162461bcd60e51b815260206004820152601460248201527350473a20696e76616c696420747265617375727960601b6044820152606490fd5b6042906127bc6128c7565b906040519161190160f01b8352600283015260228201522090565b906000602091828151910182855af115612833576000513d61282a57506001600160a01b0381163b155b6128085750565b604051635274afe760e01b81526001600160a01b039091166004820152602490fd5b60011415612801565b6040513d6000823e3d90fd5b601436101580612866575b156128625760131936013681116101e6573560601c90565b3390565b50337f00000000000000000000000000000000000000000000000000000000000000006001600160a01b03161461284a565b60ff600080516020612c0a8339815191525460401c16156128b557565b604051631afcd79f60e31b8152600490fd5b6128cf6129e7565b6128d7612a51565b6040519060208201927f8b73c3c69bb8fe3d512ecc4cf759cc79239f7b179b0ffacaa9a75d522b39400f8452604083015260608201524660808201523060a082015260a0815260c081018181106001600160401b038211176108475760405251902090565b815191906041830361296d5761296692506020820151906060604084015193015160001a90612a96565b9192909190565b505060009160029190565b6004811015610c0b578061298a575050565b600181036129a45760405163f645eedf60e01b8152600490fd5b600281036129c55760405163fce698f760e01b815260048101839052602490fd5b6003146129cf5750565b602490604051906335e2f38360e21b82526004820152fd5b6129ef612591565b80519081156129ff576020012090565b50507fa16a46d94261c7517cc8ff89f61c0ce93598e3c849801011dee649a6a557d100548015612a2c5790565b507fc5d2460186f7233c927e7db2dcc703c0e500b653ca82273b7bfad8045d85a47090565b612a59612655565b8051908115612a69576020012090565b50507fa16a46d94261c7517cc8ff89f61c0ce93598e3c849801011dee649a6a557d101548015612a2c5790565b91907f7fffffffffffffffffffffffffffffff5d576e7357a4501ddfe92f46681b20a08411612b1a57926020929160ff608095604051948552168484015260408301526060820152600092839182805260015afa15612b0e5780516001600160a01b03811615612b0557918190565b50809160019190565b604051903d90823e3d90fd5b50505060009160039190565b90612b4d5750805115612b3b57602081519101fd5b60405163d6bda27560e01b8152600490fd5b81511580612b80575b612b5e575090565b604051639996b31560e01b81526001600160a01b039091166004820152602490fd5b50803b15612b5656fea16a46d94261c7517cc8ff89f61c0ce93598e3c849801011dee649a6a557d1029016d09d72d40fdae2fd8ceac6b6234c7706214fd39c1cd1e609a0528c19930042ad5d3e1f2e6e70edcf6d991b8a3023d3fca8047a131592f9edb9fd9b89d57d9b779b17422d0df92223018b32b4d1fa46e071723d6817e2486d003becc55f00f0c57e16840df040f15088dc2f81fe391c3923bec73e23a9662efc9c229c6a00a26469706673582212208469a96c1ec7859f3db1f110b69ece3a63588faf8313ed8353b8fa94647982d464736f6c63430008180033",
  "linkReferences": {},
  "deployedLinkReferences": {}
}