{
  "_format": "hh-sol-artifact-1",
  "contractName": "PaymentGatewayV1",
  "sourceName": "src/PaymentGatewayV1.sol",
  "abi": [
    {
      "inputs": [
        {
          "internalType": "address",
          "name": "trustedForwarderAddress",
          "type": "address"
        }
      ],
      "stateMutability": "nonpayable",
      "type": "constructor"
    },
    {
      "inputs": [
        {
          "internalType": "address",
          "name": "target",
          "type": "address"
        }
      ],
      "name": "AddressEmptyCode",
      "type": "error"
    },
    {
      "inputs": [],
      "name": "ECDSAInvalidSignature",
      "type": "error"
    },
    {
      "inputs": [
        {
          "internalType": "uint256",
          "name": "length",
          "type": "uint256"
        }
      ],
      "name": "ECDSAInvalidSignatureLength",
      "type": "error"
    },
    {
      "inputs": [
        {
          "internalType": "bytes32",
          "name": "s",
          "type": "bytes32"
        }
      ],
      "name": "ECDSAInvalidSignatureS",
      "type": "error"
    },
    {
      "inputs": [
        {
          "internalType": "address",
          "name": "implementation",
          "type": "address"
        }
      ],
      "name": "ERC1967InvalidImplementation",
      "type": "error"
    },
    {
      "inputs": [],
      "name": "ERC1967NonPayable",
      "type": "error"
    },
    {
      "inputs": [],
      "name": "FailedCall",
      "type": "error"
    },
    {
      "inputs": [],
      "name": "InvalidInitialization",
      "type": "error"
    },
    {
      "inputs": [],
      "name": "NotInitializing",
      "type": "error"
    },
    {
      "inputs": [
        {
          "internalType": "address",
          "name": "owner",
          "type": "address"
        }
      ],
      "name": "OwnableInvalidOwner",
      "type": "error"
    },
    {
      "inputs": [
        {
          "internalType": "address",
          "name": "account",
          "type": "address"
        }
      ],
      "name": "OwnableUnauthorizedAccount",
      "type": "error"
    },
    {
      "inputs": [],
      "name": "ReentrancyGuardReentrantCall",
      "type": "error"
    },
    {
      "inputs": [
        {
          "internalType": "address",
          "name": "token",
          "type": "address"
        }
      ],
      "name": "SafeERC20FailedOperation",
      "type": "error"
    },
    {
      "inputs": [],
      "name": "UUPSUnauthorizedCallContext",
      "type": "error"
    },
    {
      "inputs": [
        {
          "internalType": "bytes32",
          "name": "slot",
          "type": "bytes32"
        }
      ],
      "name": "UUPSUnsupportedProxiableUUID",
      "type": "error"
    },
    {
      "anonymous": false,
      "inputs": [],
      "name": "EIP712DomainChanged",
      "type": "event"
    },
    {
      "anonymous": false,
      "inputs": [
        {
          "indexed": false,
          "internalType": "uint16",
          "name": "oldFeeBps",
          "type": "uint16"
        },
        {
          "indexed": false,
          "internalType": "uint16",
          "name": "newFeeBps",
          "type": "uint16"
        }
      ],
      "name": "FeeBpsChanged",
      "type": "event"
    },
    {
      "anonymous": false,
      "inputs": [
        {
          "indexed": false,
          "internalType": "uint64",
          "name": "version",
          "type": "uint64"
        }
      ],
      "name": "Initialized",
      "type": "event"
    },
    {
      "anonymous": false,
      "inputs": [
        {
          "indexed": true,
          "internalType": "address",
          "name": "previousOwner",
          "type": "address"
        },
        {
          "indexed": true,
          "internalType": "address",
          "name": "newOwner",
          "type": "address"
        }
      ],
      "name": "OwnershipTransferred",
      "type": "event"
    },
    {
      "anonymous": false,
      "inputs": [
        {
          "indexed": true,
          "internalType": "bytes32",
          "name": "paymentId",
          "type": "bytes32"
        },
        {
          "indexed": true,
          "internalType": "bytes32",
          "name": "merchantId",
          "type": "bytes32"
        },
        {
          "indexed": true,
          "internalType": "address",
          "name": "payerAddress",
          "type": "address"
        },
        {
          "indexed": false,
          "internalType": "address",
          "name": "tokenAddress",
          "type": "address"
        },
        {
          "indexed": false,
          "internalType": "uint256",
          "name": "amount",
          "type": "uint256"
        },
        {
          "indexed": false,
          "internalType": "uint256",
          "name": "timestamp",
          "type": "uint256"
        }
      ],
      "name": "PaymentCancelled",
      "type": "event"
    },
    {
      "anonymous": false,
      "inputs": [
        {
          "indexed": true,
          "internalType": "bytes32",
          "name": "paymentId",
          "type": "bytes32"
        },
        {
          "indexed": true,
          "internalType": "bytes32",
          "name": "merchantId",
          "type": "bytes32"
        },
        {
          "indexed": true,
          "internalType": "address",
          "name": "payerAddress",
          "type": "address"
        },
        {
          "indexed": false,
          "internalType": "address",
          "name": "recipientAddress",
          "type": "address"
        },
        {
          "indexed": false,
          "internalType": "address",
          "name": "tokenAddress",
          "type": "address"
        },
        {
          "indexed": false,
          "internalType": "uint256",
          "name": "amount",
          "type": "uint256"
        },
        {
          "indexed": false,
          "internalType": "uint256",
          "name": "escrowDeadline",
          "type": "uint256"
        },
        {
          "indexed": false,
          "internalType": "uint256",
          "name": "timestamp",
          "type": "uint256"
        }
      ],
      "name": "PaymentEscrowed",
      "type": "event"
    },
    {
      "anonymous": false,
      "inputs": [
        {
          "indexed": true,
          "internalType": "bytes32",
          "name": "paymentId",
          "type": "bytes32"
        },
        {
          "indexed": true,
          "internalType": "bytes32",
          "name": "merchantId",
          "type": "bytes32"
        },
        {
          "indexed": false,
          "internalType": "address",
          "name": "recipientAddress",
          "type": "address"
        },
        {
          "indexed": false,
          "internalType": "address",
          "name": "tokenAddress",
          "type": "address"
        },
        {
          "indexed": false,
          "internalType": "uint256",
          "name": "amount",
          "type": "uint256"
        },
        {
          "indexed": false,
          "internalType": "uint256",
          "name": "fee",
          "type": "uint256"
        },
        {
          "indexed": false,
          "internalType": "uint256",
          "name": "timestamp",
          "type": "uint256"
        }
      ],
      "name": "PaymentFinalized",
      "type": "event"
    },
    {
      "anonymous": false,
      "inputs": [
        {
          "indexed": true,
          "internalType": "bytes32",
          "name": "originalPaymentId",
          "type": "bytes32"
        },
        {
          "indexed": true,
          "internalType": "bytes32",
          "name": "merchantId",
          "type": "bytes32"
        },
        {
          "indexed": true,
          "internalType": "address",
          "name": "payerAddress",
          "type": "address"
        },
        {
          "indexed": false,
          "internalType": "address",
          "name": "merchantAddress",
          "type": "address"
        },
        {
          "indexed": false,
          "internalType": "address",
          "name": "tokenAddress",
          "type": "address"
        },
        {
          "indexed": false,
          "internalType": "uint256",
          "name": "amount",
          "type": "uint256"
        },
        {
          "indexed": false,
          "internalType": "uint256",
          "name": "timestamp",
          "type": "uint256"
        }
      ],
      "name": "RefundCompleted",
      "type": "event"
    },
    {
      "anonymous": false,
      "inputs": [
        {
          "indexed": true,
          "internalType": "address",
          "name": "oldSigner",
          "type": "address"
        },
        {
          "indexed": true,
          "internalType": "address",
          "name": "newSigner",
          "type": "address"
        }
      ],
      "name": "SignerChanged",
      "type": "event"
    },
    {
      "anonymous": false,
      "inputs": [
        {
          "indexed": true,
          "internalType": "address",
          "name": "tokenAddress",
          "type": "address"
        },
        {
          "indexed": true,
          "internalType": "bool",
          "name": "supported",
          "type": "bool"
        }
      ],
      "name": "TokenSupportChanged",
      "type": "event"
    },
    {
      "anonymous": false,
      "inputs": [
        {
          "indexed": true,
          "internalType": "address",
          "name": "oldTreasuryAddress",
          "type": "address"
        },
        {
          "indexed": true,
          "internalType": "address",
          "name": "newTreasuryAddress",
          "type": "address"
        }
      ],
      "name": "TreasuryChanged",
      "type": "event"
    },
    {
      "anonymous": false,
      "inputs": [
        {
          "indexed": true,
          "internalType": "address",
          "name": "implementation",
          "type": "address"
        }
      ],
      "name": "Upgraded",
      "type": "event"
    },
    {
      "inputs": [],
      "name": "CANCEL_REQUEST_TYPEHASH",
      "outputs": [
        {
          "internalType": "bytes32",
          "name": "",
          "type": "bytes32"
        }
      ],
      "stateMutability": "view",
      "type": "function"
    },
    {
      "inputs": [],
      "name": "FINALIZE_REQUEST_TYPEHASH",
      "outputs": [
        {
          "internalType": "bytes32",
          "name": "",
          "type": "bytes32"
        }
      ],
      "stateMutability": "view",
      "type": "function"
    },
    {
      "inputs": [],
      "name": "MAX_ESCROW_DURATION",
      "outputs": [
        {
          "internalType": "uint256",
          "name": "",
          "type": "uint256"
        }
      ],
      "stateMutability": "view",
      "type": "function"
    },
    {
      "inputs": [],
      "name": "MAX_FEE_BPS",
      "outputs": [
        {
          "internalType": "uint16",
          "name": "",
          "type": "uint16"
        }
      ],
      "stateMutability": "view",
      "type": "function"
    },
    {
      "inputs": [],
      "name": "PAYMENT_REQUEST_TYPEHASH",
      "outputs": [
        {
          "internalType": "bytes32",
          "name": "",
          "type": "bytes32"
        }
      ],
      "stateMutability": "view",
      "type": "function"
    },
    {
      "inputs": [],
      "name": "REFUND_REQUEST_TYPEHASH",
      "outputs": [
        {
          "internalType": "bytes32",
          "name": "",
          "type": "bytes32"
        }
      ],
      "stateMutability": "view",
      "type": "function"
    },
    {
      "inputs": [],
      "name": "UPGRADE_INTERFACE_VERSION",
      "outputs": [
        {
          "internalType": "string",
          "name": "",
          "type": "string"
        }
      ],
      "stateMutability": "view",
      "type": "function"
    },
    {
      "inputs": [
        {
          "internalType": "address[]",
          "name": "tokenAddresses",
          "type": "address[]"
        },
        {
          "internalType": "bool[]",
          "name": "supported",
          "type": "bool[]"
        }
      ],
      "name": "batchSetSupportedTokens",
      "outputs": [],
      "stateMutability": "nonpayable",
      "type": "function"
    },
    {
      "inputs": [
        {
          "internalType": "bytes32",
          "name": "paymentId",
          "type": "bytes32"
        },
        {
          "internalType": "bytes",
          "name": "serverSignature",
          "type": "bytes"
        }
      ],
      "name": "cancel",
      "outputs": [],
      "stateMutability": "nonpayable",
      "type": "function"
    },
    {
      "inputs": [],
      "name": "eip712Domain",
      "outputs": [
        {
          "internalType": "bytes1",
          "name": "fields",
          "type": "bytes1"
        },
        {
          "internalType": "string",
          "name": "name",
          "type": "string"
        },
        {
          "internalType": "string",
          "name": "version",
          "type": "string"
        },
        {
          "internalType": "uint256",
          "name": "chainId",
          "type": "uint256"
        },
        {
          "internalType": "address",
          "name": "verifyingContract",
          "type": "address"
        },
        {
          "internalType": "bytes32",
          "name": "salt",
          "type": "bytes32"
        },
        {
          "internalType": "uint256[]",
          "name": "extensions",
          "type": "uint256[]"
        }
      ],
      "stateMutability": "view",
      "type": "function"
    },
    {
      "inputs": [],
      "name": "enforceTokenWhitelist",
      "outputs": [
        {
          "internalType": "bool",
          "name": "",
          "type": "bool"
        }
      ],
      "stateMutability": "view",
      "type": "function"
    },
    {
      "inputs": [],
      "name": "feeBps",
      "outputs": [
        {
          "internalType": "uint16",
          "name": "",
          "type": "uint16"
        }
      ],
      "stateMutability": "view",
      "type": "function"
    },
    {
      "inputs": [
        {
          "internalType": "bytes32",
          "name": "paymentId",
          "type": "bytes32"
        },
        {
          "internalType": "bytes",
          "name": "serverSignature",
          "type": "bytes"
        }
      ],
      "name": "finalize",
      "outputs": [],
      "stateMutability": "nonpayable",
      "type": "function"
    },
    {
      "inputs": [],
      "name": "getDomainSeparator",
      "outputs": [
        {
          "internalType": "bytes32",
          "name": "",
          "type": "bytes32"
        }
      ],
      "stateMutability": "view",
      "type": "function"
    },
    {
      "inputs": [
        {
          "internalType": "bytes32",
          "name": "paymentId",
          "type": "bytes32"
        }
      ],
      "name": "getPayment",
      "outputs": [
        {
          "components": [
            {
              "internalType": "address",
              "name": "payer",
              "type": "address"
            },
            {
              "internalType": "uint16",
              "name": "feeBps",
              "type": "uint16"
            },
            {
              "internalType": "address",
              "name": "token",
              "type": "address"
            },
            {
              "internalType": "address",
              "name": "recipient",
              "type": "address"
            },
            {
              "internalType": "uint256",
              "name": "amount",
              "type": "uint256"
            },
            {
              "internalType": "bytes32",
              "name": "merchantId",
              "type": "bytes32"
            },
            {
              "internalType": "uint256",
              "name": "escrowDeadline",
              "type": "uint256"
            }
          ],
          "internalType": "struct PaymentGatewayV1.Payment",
          "name": "",
          "type": "tuple"
        }
      ],
      "stateMutability": "view",
      "type": "function"
    },
    {
      "inputs": [],
      "name": "getTrustedForwarder",
      "outputs": [
        {
          "internalType": "address",
          "name": "",
          "type": "address"
        }
      ],
      "stateMutability": "view",
      "type": "function"
    },
    {
      "inputs": [
        {
          "internalType": "address",
          "name": "owner",
          "type": "address"
        },
        {
          "internalType": "address",
          "name": "treasury",
          "type": "address"
        },
        {
          "internalType": "address",
          "name": "signer",
          "type": "address"
        }
      ],
      "name": "initialize",
      "outputs": [],
      "stateMutability": "nonpayable",
      "type": "function"
    },
    {
      "inputs": [
        {
          "internalType": "bytes32",
          "name": "paymentId",
          "type": "bytes32"
        }
      ],
      "name": "isPaymentProcessed",
      "outputs": [
        {
          "internalType": "bool",
          "name": "",
          "type": "bool"
        }
      ],
      "stateMutability": "view",
      "type": "function"
    },
    {
      "inputs": [
        {
          "internalType": "bytes32",
          "name": "paymentId",
          "type": "bytes32"
        }
      ],
      "name": "isPaymentRefunded",
      "outputs": [
        {
          "internalType": "bool",
          "name": "",
          "type": "bool"
        }
      ],
      "stateMutability": "view",
      "type": "function"
    },
    {
      "inputs": [
        {
          "internalType": "address",
          "name": "forwarder",
          "type": "address"
        }
      ],
      "name": "isTrustedForwarder",
      "outputs": [
        {
          "internalType": "bool",
          "name": "",
          "type": "bool"
        }
      ],
      "stateMutability": "view",
      "type": "function"
    },
    {
      "inputs": [],
      "name": "owner",
      "outputs": [
        {
          "internalType": "address",
          "name": "",
          "type": "address"
        }
      ],
      "stateMutability": "view",
      "type": "function"
    },
    {
      "inputs": [
        {
          "internalType": "bytes32",
          "name": "paymentId",
          "type": "bytes32"
        },
        {
          "internalType": "address",
          "name": "tokenAddress",
          "type": "address"
        },
        {
          "internalType": "uint256",
          "name": "amount",
          "type": "uint256"
        },
        {
          "internalType": "address",
          "name": "recipientAddress",
          "type": "address"
        },
        {
          "internalType": "bytes32",
          "name": "merchantId",
          "type": "bytes32"
        },
        {
          "internalType": "uint256",
          "name": "deadline",
          "type": "uint256"
        },
        {
          "internalType": "uint256",
          "name": "escrowDuration",
          "type": "uint256"
        },
        {
          "internalType": "bytes",
          "name": "serverSignature",
          "type": "bytes"
        },
        {
          "components": [
            {
              "internalType": "uint256",
              "name": "deadline",
              "type": "uint256"
            },
            {
              "internalType": "uint8",
              "name": "v",
              "type": "uint8"
            },
            {
              "internalType": "bytes32",
              "name": "r",
              "type": "bytes32"
            },
            {
              "internalType": "bytes32",
              "name": "s",
              "type": "bytes32"
            }
          ],
          "internalType": "struct IPaymentGateway.PermitSignature",
          "name": "permit",
          "type": "tuple"
        }
      ],
      "name": "pay",
      "outputs": [],
      "stateMutability": "nonpayable",
      "type": "function"
    },
    {
      "inputs": [
        {
          "internalType": "bytes32",
          "name": "",
          "type": "bytes32"
        }
      ],
      "name": "paymentStatus",
      "outputs": [
        {
          "internalType": "enum PaymentGatewayV1.PaymentStatus",
          "name": "",
          "type": "uint8"
        }
      ],
      "stateMutability": "view",
      "type": "function"
    },
    {
      "inputs": [
        {
          "internalType": "bytes32",
          "name": "",
          "type": "bytes32"
        }
      ],
      "name": "payments",
      "outputs": [
        {
          "internalType": "address",
          "name": "payer",
          "type": "address"
        },
        {
          "internalType": "uint16",
          "name": "feeBps",
          "type": "uint16"
        },
        {
          "internalType": "address",
          "name": "token",
          "type": "address"
        },
        {
          "internalType": "address",
          "name": "recipient",
          "type": "address"
        },
        {
          "internalType": "uint256",
          "name": "amount",
          "type": "uint256"
        },
        {
          "internalType": "bytes32",
          "name": "merchantId",
          "type": "bytes32"
        },
        {
          "internalType": "uint256",
          "name": "escrowDeadline",
          "type": "uint256"
        }
      ],
      "stateMutability": "view",
      "type": "function"
    },
    {
      "inputs": [],
      "name": "proxiableUUID",
      "outputs": [
        {
          "internalType": "bytes32",
          "name": "",
          "type": "bytes32"
        }
      ],
      "stateMutability": "view",
      "type": "function"
    },
    {
      "inputs": [
        {
          "internalType": "bytes32",
          "name": "originalPaymentId",
          "type": "bytes32"
        },
        {
          "internalType": "bytes",
          "name": "serverSignature",
          "type": "bytes"
        },
        {
          "components": [
            {
              "internalType": "uint256",
              "name": "deadline",
              "type": "uint256"
            },
            {
              "internalType": "uint8",
              "name": "v",
              "type": "uint8"
            },
            {
              "internalType": "bytes32",
              "name": "r",
              "type": "bytes32"
            },
            {
              "internalType": "bytes32",
              "name": "s",
              "type": "bytes32"
            }
          ],
          "internalType": "struct IPaymentGateway.PermitSignature",
          "name": "permit",
          "type": "tuple"
        }
      ],
      "name": "refund",
      "outputs": [],
      "stateMutability": "nonpayable",
      "type": "function"
    },
    {
      "inputs": [],
      "name": "renounceOwnership",
      "outputs": [],
      "stateMutability": "nonpayable",
      "type": "function"
    },
    {
      "inputs": [
        {
          "internalType": "bool",
          "name": "enforce",
          "type": "bool"
        }
      ],
      "name": "setEnforceTokenWhitelist",
      "outputs": [],
      "stateMutability": "nonpayable",
      "type": "function"
    },
    {
      "inputs": [
        {
          "internalType": "uint16",
          "name": "newFeeBps",
          "type": "uint16"
        }
      ],
      "name": "setFeeBps",
      "outputs": [],
      "stateMutability": "nonpayable",
      "type": "function"
    },
    {
      "inputs": [
        {
          "internalType": "address",
          "name": "newSigner",
          "type": "address"
        }
      ],
      "name": "setSigner",
      "outputs": [],
      "stateMutability": "nonpayable",
      "type": "function"
    },
    {
      "inputs": [
        {
          "internalType": "address",
          "name": "tokenAddress",
          "type": "address"
        },
        {
          "internalType": "bool",
          "name": "supported",
          "type": "bool"
        }
      ],
      "name": "setSupportedToken",
      "outputs": [],
      "stateMutability": "nonpayable",
      "type": "function"
    },
    {
      "inputs": [
        {
          "internalType": "address",
          "name": "newTreasuryAddress",
          "type": "address"
        }
      ],
      "name": "setTreasury",
      "outputs": [],
      "stateMutability": "nonpayable",
      "type": "function"
    },
    {
      "inputs": [],
      "name": "signerAddress",
      "outputs": [
        {
          "internalType": "address",
          "name": "",
          "type": "address"
        }
      ],
      "stateMutability": "view",
      "type": "function"
    },
    {
      "inputs": [
        {
          "internalType": "address",
          "name": "",
          "type": "address"
        }
      ],
      "name": "supportedTokens",
      "outputs": [
        {
          "internalType": "bool",
          "name": "",
          "type": "bool"
        }
      ],
      "stateMutability": "view",
      "type": "function"
    },
    {
      "inputs": [
        {
          "internalType": "address",
          "name": "newOwner",
          "type": "address"
        }
      ],
      "name": "transferOwnership",
      "outputs": [],
      "stateMutability": "nonpayable",
      "type": "function"
    },
    {
      "inputs": [],
      "name": "treasuryAddress",
      "outputs": [
        {
          "internalType": "address",
          "name": "",
          "type": "address"
        }
      ],
      "stateMutability": "view",
      "type": "function"
    },
    {
      "inputs": [],
      "name": "trustedForwarder",
      "outputs": [
        {
          "internalType": "address",
          "name": "",
          "type": "address"
        }
      ],
      "stateMutability": "view",
      "type": "function"
    },
    {
      "inputs": [
        {
          "internalType": "address",
          "name": "newImplementation",
          "type": "address"
        },
        {
          "internalType": "bytes",
          "name": "data",
          "type": "bytes"
        }
      ],
      "name": "upgradeToAndCall",
      "outputs": [],
      "stateMutability": "payable",
      "type": "function"
    }
  ],
  "bytecode": "0x60c03462000128576001600160401b0390601f62002f9d38819003918201601f1916830191848311848410176200012d578084926020946040528339810103126200012857516001600160a01b038116810362000128573060805260a0527ff0c57e16840df040f15088dc2f81fe391c3923bec73e23a9662efc9c229c6a009081549060ff8260401c1662000116578080831603620000d0575b604051612e5990816200014482396080518181816112900152611633015260a05181818161042b0152818161124901526128280152f35b6001600160401b031990911681179091556040519081527fc7f505b2f371ae2175ee4913f4499e1f2633a7b5936321eed1cdaeb6115181d290602090a138808062000099565b60405163f92ee8a960e01b8152600490fd5b600080fd5b634e487b7160e01b600052604160045260246000fdfe6080604052600436101561001257600080fd5b60003560e01c8063023b1fc91461216557806304ffe418146121425780630716326d146120c75780630794305e146120a95780631e049b661461206e57806322fda2ba1461203357806324a9d8531461200e5780632a98df0514611a065780632d07a7f4146119cd578063302bacf3146118855780634630aa181461184d5780634a0ea4d7146118125780634f1ef286146115e457806352767f13146112fa57806352d1902d1461127d578063572b6c05146112295780635b7633d01461120057806368c4ac26146111c15780636c19e78314611198578063715018a61461112e5780637da0a8771461041557806384b0196e14610e645780638da5cb5b14610e2e57806392cd210614610cd1578063ac33fd1f14610c96578063ad3cb1cc14610c4c578063baca75ee14610c10578063c037f13e146109be578063c0c53b8b14610487578063c5f956af1461045a578063ce1b815f14610415578063d55be8c6146103f8578063e66eefc814610303578063e798646614610275578063ed24911d14610252578063f0f4426014610229578063f2fde38b146101fe5763f85b17fc146101be57600080fd5b346101f95760003660031901126101f95760206040517f61992068a07dd9b00412f89bbb59a5e12aefbf434488b2455eb7e91e8b6035a98152f35b600080fd5b346101f95760203660031901126101f95761022761021a612238565b610222612573565b6124ff565b005b346101f95760203660031901126101f957610227610245612238565b61024d612573565b612762565b346101f95760003660031901126101f957602061026d612913565b604051908152f35b346101f95760403660031901126101f95761028e612238565b602435801515918282036101f9576102dc906102a8612573565b6001600160a01b0316916102bd8315156124b2565b82600052600260205260406000209060ff801983541691151516179055565b7f4e64f955f4c1a97a6779d936a2fe8f59e1674f3e1a4c883736b9131969860a89600080a3005b346101f95760203660031901126101f957600060c0604051610324816122ae565b8281528260208201528260408201528260608201528260808201528260a08201520152600435600052600160205260e06040600020604051610365816122ae565b81549160018060a01b03928381169384845261ffff80602086019360a01c1683528180600186015416604087019081528160028701541692606088019384526003870154956080890196875260c0600560048a01549960a08c019a8b5201549901988952604051998a525116602089015251166040870152511660608501525160808401525160a08301525160c0820152f35b346101f95760003660031901126101f95760206040516127108152f35b346101f95760003660031901126101f9576040517f00000000000000000000000000000000000000000000000000000000000000006001600160a01b03168152602090f35b346101f95760003660031901126101f95760035460405160089190911c6001600160a01b03168152602090f35b346101f95760603660031901126101f9576104a0612238565b6104a8612222565b6044356001600160a01b03811690036101f957600080516020612de483398151915254916001600160401b038316801590816109ae575b60011490816109a4575b15908161099b575b506109895761053d9060016001600160401b0319851617600080516020612de48339815191525560ff8460401c161561095c575b61052d6128e4565b6105356128e4565b6102226128e4565b6105456128e4565b61054d6128e4565b6001600080516020612dc4833981519152556040519161056c836122f7565b600e83526d536f6c6f5061794761746577617960901b602084015260405191610594836122f7565b60018352603160f81b60208401526105aa6128e4565b6105b26128e4565b83516001600160401b038111610836576105da600080516020612d6483398151915254612728565b601f81116108e6575b506020601f821160011461085757819293949560009261084c575b50508160011b916000199060031b1c191617600080516020612d64833981519152555b82516001600160401b038111610836577fa16a46d94261c7517cc8ff89f61c0ce93598e3c849801011dee649a6a557d1039061065d8254612728565b601f81116107e4575b506020601f821160011461076c5790806106f294939260ff97600092610761575b50508160011b916000199060031b1c19161790555b60007fa16a46d94261c7517cc8ff89f61c0ce93598e3c849801011dee649a6a557d1005560007fa16a46d94261c7517cc8ff89f61c0ce93598e3c849801011dee649a6a557d10155831960035416600355612762565b6106fd60443561269a565b60401c161561070857005b68ff000000000000000019600080516020612de48339815191525416600080516020612de4833981519152557fc7f505b2f371ae2175ee4913f4499e1f2633a7b5936321eed1cdaeb6115181d2602060405160018152a1005b015190508780610687565b601f1982169583600052600080516020612e048339815191529660005b8181106107cc57509660019284926106f297969560ff9a106107b3575b505050811b01905561069c565b015160001960f88460031b161c191690558780806107a6565b83830151895560019098019760209384019301610789565b82600052600080516020612e04833981519152601f830160051c8101916020841061082c575b601f0160051c01905b8181106108205750610666565b60008155600101610813565b909150819061080a565b634e487b7160e01b600052604160045260246000fd5b0151905085806105fe565b600080516020612d64833981519152600052600080516020612da48339815191529060005b601f19841681106108ce575060019394959683601f198116106108b5575b505050811b01600080516020612d6483398151915255610621565b015160001960f88460031b161c1916905585808061089a565b9091602060018192858b01518155019301910161087c565b600080516020612d64833981519152600052601f820160051c600080516020612da48339815191520160208310610947575b601f820160051c600080516020612da483398151915201811061093b57506105e3565b60008155600101610918565b50600080516020612da4833981519152610918565b68ffffffffffffffffff1984166801000000000000000117600080516020612de483398151915255610525565b60405163f92ee8a960e01b8152600490fd5b905015846104f1565b303b1591506104e9565b604085901c60ff161591506104df565b346101f9576109cc3661227b565b91906109d66125c1565b81600052600060205260ff604060002054166005811015610bfa5760016109fd9114612439565b81600052600160205260406000209060058201544211610bc057610a8293610a73610a7992610a6b60405160208101907f61992068a07dd9b00412f89bbb59a5e12aefbf434488b2455eb7e91e8b6035a9825288604082015260408152610a63816122dc565b519020612856565b92369161234e565b90612988565b909491946129c4565b6004546001600160a01b0393610a9d918516908516146123f5565b8160005260006020526040600020600260ff19825416179055600381019081549161ffff825460a01c16808402908482041484151715610baa57612710900491828403938411610baa577f2b2fdf8aab28132b363e3ab98b6c4e00fb159bdf02311f7bceb5f77d8fae7fd29386806004610b759487610b8c575b610b31600182019584875416600284019d8e54169061264b565b0154985492549454604080516001600160a01b03939095168316855292909516166020830152810192909252606082019290925242608082015290819060a0820190565b0390a36001600080516020612dc483398151915255005b610ba588846001840154168560035460081c169061264b565b610b17565b634e487b7160e01b600052601160045260246000fd5b60405162461bcd60e51b81526020600482015260126024820152711411ce88195cd8dc9bddc8195e1c1a5c995960721b6044820152606490fd5b634e487b7160e01b600052602160045260246000fd5b346101f95760203660031901126101f957600435600052600060205260ff604060002054166005811015610bfa57602090600460405191148152f35b346101f95760003660031901126101f957610c92604051610c6c816122f7565b60058152640352e302e360dc1b6020820152604051918291602083526020830190612385565b0390f35b346101f95760003660031901126101f95760206040517fb75b6ec39be5cb7158d6f02324c4273b2411518a383786fa4b37e7c759596f518152f35b346101f95760403660031901126101f9576001600160401b036004358181116101f957610d029036906004016123c5565b90916024359081116101f957610d1c9036906004016123c5565b9190610d26612573565b828203610df35760005b828110610d3957005b6001906001600160a01b03610d6381610d5b610d5685898c612478565b61249e565b1615156124b2565b610da7610d79610d74848988612478565b6124f2565b82610d88610d56868a8d612478565b16600052600260205260406000209060ff801983541691151516179055565b610db5610d5683878a612478565b90610dc4610d74848988612478565b151591167f4e64f955f4c1a97a6779d936a2fe8f59e1674f3e1a4c883736b9131969860a89600080a301610d30565b60405162461bcd60e51b81526020600482015260136024820152720a08e7440d8cadccee8d040dad2e6dac2e8c6d606b1b6044820152606490fd5b346101f95760003660031901126101f957600080516020612d84833981519152546040516001600160a01b039091168152602090f35b346101f95760003660031901126101f9577fa16a46d94261c7517cc8ff89f61c0ce93598e3c849801011dee649a6a557d100541580611105575b156110c857604051600090600080516020612d6483398151915280549282610ec585612728565b91828252602093600196856001821691826000146110a857505060011461105c575b50610ef492500383612312565b604051906000827fa16a46d94261c7517cc8ff89f61c0ce93598e3c849801011dee649a6a557d10391825492610f2984612728565b938484528560018216918260001461103c575050600114610ff0575b50610f5292500383612312565b60405190808201928284106001600160401b038511176108365790849281610fa988948760405260008452610f9b60405197600f60f81b895260e0858a015260e0890190612385565b908782036040890152612385565b91466060870152306080870152600060a087015285830360c0870152519182815201949160005b828110610fdd5785870386f35b8351875295810195928101928401610fd0565b9150506000528282600080516020612e04833981519152876000915b858310611023575050610f52935082010187610f45565b809192945054838589010152019101839087869361100c565b60ff191685820152610f5295151560051b8501019250899150610f459050565b9150506000528282600080516020612da4833981519152866000915b85831061108f575050610ef4935082010186610ee7565b8091929450548385890101520191018390868693611078565b60ff191685820152610ef495151560051b8501019250889150610ee79050565b60405162461bcd60e51b81526020600482015260156024820152741152540dcc4c8e88155b9a5b9a5d1a585b1a5e9959605a1b6044820152606490fd5b507fa16a46d94261c7517cc8ff89f61c0ce93598e3c849801011dee649a6a557d1015415610e9e565b346101f95760003660031901126101f957611147612573565b600080516020612d8483398151915280546001600160a01b031981169091556000906001600160a01b03167f8be0079c531659141344cd1fd0a4f28419497f9722a3daafe3b4186f6b6457e08280a3005b346101f95760203660031901126101f9576102276111b4612238565b6111bc612573565b61269a565b346101f95760203660031901126101f9576001600160a01b036111e2612238565b166000526002602052602060ff604060002054166040519015158152f35b346101f95760003660031901126101f9576004546040516001600160a01b039091168152602090f35b346101f95760203660031901126101f9576020611244612238565b6040517f00000000000000000000000000000000000000000000000000000000000000006001600160a01b039081169216919091148152f35b346101f95760003660031901126101f9577f00000000000000000000000000000000000000000000000000000000000000006001600160a01b031630036112e85760206040517f360894a13ba1a3210667c828492db98dca3e2076cc3735a920a3ca505d382bbc8152f35b60405163703e46dd60e11b8152600490fd5b346101f95760c03660031901126101f9576024356001600160401b0381116101f95761132a90369060040161224e565b60803660431901126101f95761133e6125c1565b600435600052600060205260ff604060002054166005811015610bfa576002036115ab57600435600052600160205260406000209161137b6127fd565b60028401549092906001600160a01b03908116908416036115725760018401546003850154906001600160a01b03166044356114db575b505061140561140e91610a7361142494610a6b60405160208101907fa7a07684522dbe178ba65248f3194c7b61eb09fe0c9bd07ba4f8b26601440dd48252600435604082015260408152610a63816122dc565b909291926129c4565b6004546001600160a01b039182169116146123f5565b60043560005260006020526040600020600460ff1982541617905561146560018060a01b0360018401541660018060a01b03845416836003860154926125f1565b60048281015483546001850154600390950154604080516001600160a01b0396871681529686166020880152860152426060860152909216929035907f7e5fe09e3150ab5da869814eeed66253403e9a7c4d41e0c493099f9d7554177790608090a46001600080516020612dc483398151915255005b90916064359260ff841684036101f957823b156101f9576114249461140e946000610a739360e48a836114059960ff604051978896879563d505accf60e01b875260018060a01b031660048701523060248701526044860152604435606486015216608484015260843560a484015260a43560c48401525af1611563575b50945050916113b2565b61156c906122c9565b88611559565b60405162461bcd60e51b81526020600482015260116024820152701411ce881b9bdd081c9958da5c1a595b9d607a1b6044820152606490fd5b60405162461bcd60e51b81526020600482015260116024820152701411ce881b9bdd08199a5b985b1a5e9959607a1b6044820152606490fd5b60403660031901126101f9576115f8612238565b6024356001600160401b0381116101f957366023820112156101f95761162890369060248160040135910161234e565b906001600160a01b037f000000000000000000000000000000000000000000000000000000000000000081163081149081156117e4575b506112e85761166c612573565b6040516352d1902d60e01b8152908216916020918281600481875afa600091816117b5575b506116af57604051634c9c8ce360e01b815260048101859052602490fd5b9284937f360894a13ba1a3210667c828492db98dca3e2076cc3735a920a3ca505d382bbc9081810361179d5750823b156117845780546001600160a01b03191682179055604051907fbc7cd75a20ee27fd9adebab32041f755214dbc6bffa90cc0225b39da2e5c2d3b600080a283511561176a5750600080848461022796519101845af4903d15611761573d61174481612333565b906117526040519283612312565b8152600081943d92013e612d00565b60609250612d00565b925050503461177557005b63b398979f60e01b8152600490fd5b604051634c9c8ce360e01b815260048101839052602490fd5b60249060405190632a87526960e21b82526004820152fd5b9091508381813d83116117dd575b6117cd8183612312565b810103126101f957519086611691565b503d6117c3565b9050817f360894a13ba1a3210667c828492db98dca3e2076cc3735a920a3ca505d382bbc541614158461165f565b346101f95760203660031901126101f957600435600052600060205260ff604060002054166005811015610bfa576020906040519015158152f35b346101f95760203660031901126101f957600435600052600060205260ff604060002054166040516005821015610bfa576020918152f35b346101f9576118933661227b565b9061189c6125c1565b82600052600060205260ff604060002054166005811015610bfa5760016118c39114612439565b8260005260016020526040600020916005830154421115611977575b50508160005260006020526040600020600360ff1982541617905560018101917f925512dfa8bea1e7806704c7b1a9a8cd27aa4d2f2cd918c13318898d0e9a55d9606060018060a01b0380865416906119438187541692600388019384549161264b565b80600487015496541696541690546040519182526020820152426040820152a46001600080516020612dc483398151915255005b61140561140e91610a736119c694610a6b60405160208101907fb75b6ec39be5cb7158d6f02324c4273b2411518a383786fa4b37e7c759596f5182528a604082015260408152610a63816122dc565b82806118df565b346101f95760203660031901126101f9576004358015158091036101f9576119f3612573565b60ff801960035416911617600355600080f35b346101f9576101803660031901126101f957611a20612222565b6064356001600160a01b03811690036101f95760e4356001600160401b0381116101f957611a5290369060040161224e565b906080366101031901126101f957611a686125c1565b611a706127fd565b916101043580611f86575b5060a4354211611f535760035490600882901c6001600160a01b031615611f17576004546001600160a01b03168015611edd57600435600052600060205260ff604060002054166005811015610bfa57611ea05760443515611e6257611aeb6001600160a01b03871615156124b2565b6064356001600160a01b031615611e255760c435151580611e16575b15611dd1576040517f4c9a1d78b1a0b9e8b33a9b69e03b89406e4ef1213a14b704777a3d0a798336956020820152600435604082015260018060a01b0387166060820152604435608082015260018060a01b036064351660a082015260843560c082015260a43560e082015261010060c435818301528152806101208101106001600160401b036101208301111761083657611405611bd093610a7360ff97610a6b85610120611bc1970160405260208151910120612856565b6001600160a01b0316146123f5565b16611d6c575b60c43542014211610baa5760043560005260006020526040600020600160ff1982541617905561ffff60045460a01c16600560405191611c15836122ae565b6001600160a01b0384811684526020808501928352868216604080870182815260643585166060890190815260443560808a0181815260843560a0808d0191825260c435420160c08e0190815260048035600090815260019b8c9052989098209d518e549c5161ffff60a01b931b92909216918b166001600160b01b0319909c169b909b17178c559351968b0180549789166001600160a01b0319988916179055915160028b018054919098169616959095179095559351600388015592519286019290925591519290930191909155611cf291309084906125f1565b604080516001600160a01b03606435811682529384166020820152604435918101919091524260c43581016060830152608082015291169060843590600435907f8990ffeac9505be1d0cfa321d5a1164b78b26bd71fab5ee6ac41e6dacff691649060a090a46001600080516020612dc483398151915255005b6001600160a01b03821660009081526002602052604090205460ff16611bd65760405162461bcd60e51b815260206004820152601760248201527f50473a20746f6b656e206e6f7420737570706f727465640000000000000000006044820152606490fd5b60405162461bcd60e51b815260206004820152601a60248201527f50473a20696e76616c696420657363726f774475726174696f6e0000000000006044820152606490fd5b5062278d0060c4351115611b07565b60405162461bcd60e51b81526020600482015260156024820152741411ce881a5b9d985b1a59081c9958da5c1a595b9d605a1b6044820152606490fd5b60405162461bcd60e51b8152602060048201526016602482015275050473a20616d6f756e74206d757374206265203e20360541b6044820152606490fd5b60405162461bcd60e51b81526020600482015260156024820152741411ce88185b1c9958591e481c1c9bd8d95cdcd959605a1b6044820152606490fd5b60405162461bcd60e51b81526020600482015260126024820152711411ce881cda59db995c881b9bdd081cd95d60721b6044820152606490fd5b60405162461bcd60e51b81526020600482015260146024820152731411ce881d1c99585cdd5c9e481b9bdd081cd95d60621b6044820152606490fd5b60405162461bcd60e51b815260206004820152600b60248201526a1411ce88195e1c1a5c995960aa1b6044820152606490fd5b6001600160a01b038516906101243560ff8116908190036101f957823b156101f95760e460009283604051958694859363d505accf60e01b855260018060a01b038c1660048601523060248601526044356044860152606485015260848401526101443560a48401526101643560c48401525af115611a7b57612008906122c9565b84611a7b565b346101f95760003660031901126101f957602061ffff60045460a01c16604051908152f35b346101f95760003660031901126101f95760206040517fa7a07684522dbe178ba65248f3194c7b61eb09fe0c9bd07ba4f8b26601440dd48152f35b346101f95760003660031901126101f95760206040517f4c9a1d78b1a0b9e8b33a9b69e03b89406e4ef1213a14b704777a3d0a798336958152f35b346101f95760003660031901126101f957602060405162278d008152f35b346101f95760203660031901126101f957600435600052600160205260e06040600020805460018060a01b0391826001820154168360028301541660038301549161ffff6005600486015495015495604051978116885260a01c16602087015260408601526060850152608084015260a083015260c0820152f35b346101f95760003660031901126101f957602060ff600354166040519015158152f35b346101f95760203660031901126101f95760043561ffff808216918281036101f95761218f612573565b61271083116121ea577f876f5ff5c5f660d3f54bcc10d8f1f392b2b108ecfae7f29571af1e09796b09f8926040926004549261ffff60a01b9060a01b1661ffff60a01b1984161760045583519260a01c1682526020820152a1005b60405162461bcd60e51b815260206004820152601060248201526f0a08e7440cccaca40e8dede40d0d2ced60831b6044820152606490fd5b602435906001600160a01b03821682036101f957565b600435906001600160a01b03821682036101f957565b9181601f840112156101f9578235916001600160401b0383116101f957602083818601950101116101f957565b9060406003198301126101f95760043591602435906001600160401b0382116101f9576122aa9160040161224e565b9091565b60e081019081106001600160401b0382111761083657604052565b6001600160401b03811161083657604052565b606081019081106001600160401b0382111761083657604052565b604081019081106001600160401b0382111761083657604052565b90601f801991011681019081106001600160401b0382111761083657604052565b6001600160401b03811161083657601f01601f191660200190565b92919261235a82612333565b916123686040519384612312565b8294818452818301116101f9578281602093846000960137010152565b919082519283825260005b8481106123b1575050826000602080949584010152601f8019910116010190565b602081830181015184830182015201612390565b9181601f840112156101f9578235916001600160401b0383116101f9576020808501948460051b0101116101f957565b156123fc57565b60405162461bcd60e51b815260206004820152601560248201527450473a20696e76616c6964207369676e617475726560581b6044820152606490fd5b1561244057565b60405162461bcd60e51b815260206004820152601060248201526f1411ce881b9bdd08195cd8dc9bddd95960821b6044820152606490fd5b91908110156124885760051b0190565b634e487b7160e01b600052603260045260246000fd5b356001600160a01b03811681036101f95790565b156124b957565b60405162461bcd60e51b815260206004820152601160248201527028239d1034b73b30b634b2103a37b5b2b760791b6044820152606490fd5b3580151581036101f95790565b6001600160a01b0390811690811561255a57600080516020612d8483398151915280546001600160a01b031981168417909155167f8be0079c531659141344cd1fd0a4f28419497f9722a3daafe3b4186f6b6457e0600080a3565b604051631e4fbdf760e01b815260006004820152602490fd5b600080516020612d84833981519152546001600160a01b03908116816125976127fd565b16036125a05750565b6024906125ab6127fd565b60405163118cdaa760e01b815291166004820152fd5b600080516020612dc483398151915260028154146125df5760029055565b604051633ee5aeb560e01b8152600490fd5b6040516323b872dd60e01b60208201526001600160a01b03928316602482015292909116604483015260648083019390935291815260a08101918183106001600160401b03841117610836576126499260405261287c565b565b60405163a9059cbb60e01b60208201526001600160a01b03909216602483015260448083019390935291815260808101916001600160401b03831182841017610836576126499260405261287c565b6001600160a01b039081169081156126ee57600454826bffffffffffffffffffffffff60a01b821617600455167feeb293e1f8f3a9db91ade748726387ed1352ca78f5430c5f06fe3d1e1ad50579600080a3565b60405162461bcd60e51b815260206004820152601260248201527128239d1034b73b30b634b21039b4b3b732b960711b6044820152606490fd5b90600182811c92168015612758575b602083101461274257565b634e487b7160e01b600052602260045260246000fd5b91607f1691612737565b6001600160a01b038181169182156127c15760038054610100600160a81b03198116600893841b610100600160a81b031617909155901c167f8c3aa5f43a388513435861bf27dfad7829cd248696fed367c62d441f62954496600080a3565b60405162461bcd60e51b815260206004820152601460248201527350473a20696e76616c696420747265617375727960601b6044820152606490fd5b601436101580612824575b156128205760131936013681116101f9573560601c90565b3390565b50337f00000000000000000000000000000000000000000000000000000000000000006001600160a01b031614612808565b604290612861612913565b906040519161190160f01b8352600283015260228201522090565b906000602091828151910182855af1156128d8576000513d6128cf57506001600160a01b0381163b155b6128ad5750565b604051635274afe760e01b81526001600160a01b039091166004820152602490fd5b600114156128a6565b6040513d6000823e3d90fd5b60ff600080516020612de48339815191525460401c161561290157565b604051631afcd79f60e31b8152600490fd5b61291b612a33565b612923612b5b565b6040519060208201927f8b73c3c69bb8fe3d512ecc4cf759cc79239f7b179b0ffacaa9a75d522b39400f8452604083015260608201524660808201523060a082015260a0815260c081018181106001600160401b038211176108365760405251902090565b81519190604183036129b9576129b292506020820151906060604084015193015160001a90612c70565b9192909190565b505060009160029190565b6004811015610bfa57806129d6575050565b600181036129f05760405163f645eedf60e01b8152600490fd5b60028103612a115760405163fce698f760e01b815260048101839052602490fd5b600314612a1b5750565b602490604051906335e2f38360e21b82526004820152fd5b604051600090600080516020612d648339815191529181835491612a5683612728565b928383526020906020840196600191600181169081600014612b375750600114612ae8575b505050612a8a92500382612312565b51908115612a96572090565b50507fa16a46d94261c7517cc8ff89f61c0ce93598e3c849801011dee649a6a557d100548015612ac35790565b507fc5d2460186f7233c927e7db2dcc703c0e500b653ca82273b7bfad8045d85a47090565b6000908152600080516020612da48339815191529590935091905b828410612b1f5750612a8a945050508101602001388080612a7b565b85548785018301529485019486945092810192612b03565b9250505060209250612a8a94915060ff19168652151560051b820101388080612a7b565b6040516000907fa16a46d94261c7517cc8ff89f61c0ce93598e3c849801011dee649a6a557d1039181835491612b9083612728565b928383526020906020840196600191600181169081600014612c4c5750600114612bfd575b505050612bc492500382612312565b51908115612bd0572090565b50507fa16a46d94261c7517cc8ff89f61c0ce93598e3c849801011dee649a6a557d101548015612ac35790565b6000908152600080516020612e048339815191529590935091905b828410612c345750612bc4945050508101602001388080612bb5565b85548785018301529485019486945092810192612c18565b9250505060209250612bc494915060ff19168652151560051b820101388080612bb5565b91907f7fffffffffffffffffffffffffffffff5d576e7357a4501ddfe92f46681b20a08411612cf457926020929160ff608095604051948552168484015260408301526060820152600092839182805260015afa15612ce85780516001600160a01b03811615612cdf57918190565b50809160019190565b604051903d90823e3d90fd5b50505060009160039190565b90612d275750805115612d1557602081519101fd5b60405163d6bda27560e01b8152600490fd5b81511580612d5a575b612d38575090565b604051639996b31560e01b81526001600160a01b039091166004820152602490fd5b50803b15612d3056fea16a46d94261c7517cc8ff89f61c0ce93598e3c849801011dee649a6a557d1029016d09d72d40fdae2fd8ceac6b6234c7706214fd39c1cd1e609a0528c19930042ad5d3e1f2e6e70edcf6d991b8a3023d3fca8047a131592f9edb9fd9b89d57d9b779b17422d0df92223018b32b4d1fa46e071723d6817e2486d003becc55f00f0c57e16840df040f15088dc2f81fe391c3923bec73e23a9662efc9c229c6a005f9ce34815f8e11431c7bb75a8e6886a91478f7ffc1dbb0a98dc240fddd76b75a264697066735822122024891f15a3df45c8f068d99c48d3ecd7bd1cd3507bd7b0dba95cf6178ed5c73164736f6c63430008180033",
  "linkReferences": {},
  "deployedLinkReferences": {}
}